{
  "contractName": "NoGas",
  "abi": [
    {
      "inputs": [
        {
          "internalType": "address",
          "name": "oracle",
          "type": "address"
        },
        {
          "internalType": "address",
          "name": "refundAddress",
          "type": "address"
        }
      ],
      "stateMutability": "nonpayable",
      "type": "constructor"
    },
    {
      "anonymous": false,
      "inputs": [
        {
          "indexed": true,
          "internalType": "address",
          "name": "operator",
          "type": "address"
        }
      ],
      "name": "AddOperator",
      "type": "event"
    },
    {
      "anonymous": false,
      "inputs": [
        {
          "indexed": false,
          "internalType": "address",
          "name": "signer",
          "type": "address"
        },
        {
          "indexed": false,
          "internalType": "address",
          "name": "token",
          "type": "address"
        },
        {
          "indexed": false,
          "internalType": "uint256",
          "name": "tokenAmount",
          "type": "uint256"
        },
        {
          "indexed": false,
          "internalType": "uint256",
          "name": "ethAmount",
          "type": "uint256"
        },
        {
          "indexed": false,
          "internalType": "uint256",
          "name": "transferGasFee",
          "type": "uint256"
        }
      ],
      "name": "ExchangeInfo",
      "type": "event"
    },
    {
      "anonymous": false,
      "inputs": [
        {
          "indexed": true,
          "internalType": "uint256",
          "name": "newFeeRate",
          "type": "uint256"
        }
      ],
      "name": "FeeChange",
      "type": "event"
    },
    {
      "anonymous": false,
      "inputs": [
        {
          "indexed": true,
          "internalType": "address",
          "name": "_newOwner",
          "type": "address"
        }
      ],
      "name": "OwnerChanged",
      "type": "event"
    },
    {
      "anonymous": false,
      "inputs": [
        {
          "indexed": true,
          "internalType": "address",
          "name": "newRefundAddress",
          "type": "address"
        }
      ],
      "name": "RefundAddressChange",
      "type": "event"
    },
    {
      "anonymous": false,
      "inputs": [
        {
          "indexed": true,
          "internalType": "address",
          "name": "operator",
          "type": "address"
        }
      ],
      "name": "RemoveOperator",
      "type": "event"
    },
    {
      "anonymous": false,
      "inputs": [
        {
          "indexed": true,
          "internalType": "bytes32",
          "name": "role",
          "type": "bytes32"
        },
        {
          "indexed": true,
          "internalType": "bytes32",
          "name": "previousAdminRole",
          "type": "bytes32"
        },
        {
          "indexed": true,
          "internalType": "bytes32",
          "name": "newAdminRole",
          "type": "bytes32"
        }
      ],
      "name": "RoleAdminChanged",
      "type": "event"
    },
    {
      "anonymous": false,
      "inputs": [
        {
          "indexed": true,
          "internalType": "bytes32",
          "name": "role",
          "type": "bytes32"
        },
        {
          "indexed": true,
          "internalType": "address",
          "name": "account",
          "type": "address"
        },
        {
          "indexed": true,
          "internalType": "address",
          "name": "sender",
          "type": "address"
        }
      ],
      "name": "RoleGranted",
      "type": "event"
    },
    {
      "anonymous": false,
      "inputs": [
        {
          "indexed": true,
          "internalType": "bytes32",
          "name": "role",
          "type": "bytes32"
        },
        {
          "indexed": true,
          "internalType": "address",
          "name": "account",
          "type": "address"
        },
        {
          "indexed": true,
          "internalType": "address",
          "name": "sender",
          "type": "address"
        }
      ],
      "name": "RoleRevoked",
      "type": "event"
    },
    {
      "inputs": [],
      "name": "DEFAULT_ADMIN_ROLE",
      "outputs": [
        {
          "internalType": "bytes32",
          "name": "",
          "type": "bytes32"
        }
      ],
      "stateMutability": "view",
      "type": "function"
    },
    {
      "inputs": [],
      "name": "OPERATOR_ROLE",
      "outputs": [
        {
          "internalType": "bytes32",
          "name": "",
          "type": "bytes32"
        }
      ],
      "stateMutability": "view",
      "type": "function"
    },
    {
      "inputs": [],
      "name": "_feeRate",
      "outputs": [
        {
          "internalType": "uint256",
          "name": "",
          "type": "uint256"
        }
      ],
      "stateMutability": "view",
      "type": "function"
    },
    {
      "inputs": [],
      "name": "_oracle",
      "outputs": [
        {
          "internalType": "contract IOracle",
          "name": "",
          "type": "address"
        }
      ],
      "stateMutability": "view",
      "type": "function"
    },
    {
      "inputs": [],
      "name": "_refundAddress",
      "outputs": [
        {
          "internalType": "address",
          "name": "",
          "type": "address"
        }
      ],
      "stateMutability": "view",
      "type": "function"
    },
    {
      "inputs": [
        {
          "internalType": "address",
          "name": "operator",
          "type": "address"
        }
      ],
      "name": "addOperator",
      "outputs": [],
      "stateMutability": "nonpayable",
      "type": "function"
    },
    {
      "inputs": [
        {
          "internalType": "uint256",
          "name": "newFeeRate",
          "type": "uint256"
        }
      ],
      "name": "changeFee",
      "outputs": [],
      "stateMutability": "nonpayable",
      "type": "function"
    },
    {
      "inputs": [
        {
          "internalType": "address",
          "name": "_newOwner",
          "type": "address"
        }
      ],
      "name": "changeOwner",
      "outputs": [],
      "stateMutability": "nonpayable",
      "type": "function"
    },
    {
      "inputs": [
        {
          "internalType": "address",
          "name": "newRefundAddress",
          "type": "address"
        }
      ],
      "name": "changeRefundAddress",
      "outputs": [],
      "stateMutability": "nonpayable",
      "type": "function"
    },
    {
      "inputs": [
        {
          "internalType": "address",
          "name": "token",
          "type": "address"
        },
        {
          "internalType": "bytes",
          "name": "permit",
          "type": "bytes"
        },
        {
          "internalType": "address",
          "name": "signer",
          "type": "address"
        },
        {
          "internalType": "bytes",
          "name": "sig",
          "type": "bytes"
        },
        {
          "internalType": "uint256",
          "name": "exchangeTokenAmount",
          "type": "uint256"
        },
        {
          "internalType": "uint256",
          "name": "exchangeEthMinLimit",
          "type": "uint256"
        },
        {
          "internalType": "uint256",
          "name": "gasAmount",
          "type": "uint256"
        }
      ],
      "name": "exchangeGas",
      "outputs": [],
      "stateMutability": "nonpayable",
      "type": "function"
    },
    {
      "inputs": [
        {
          "internalType": "bytes32",
          "name": "role",
          "type": "bytes32"
        }
      ],
      "name": "getRoleAdmin",
      "outputs": [
        {
          "internalType": "bytes32",
          "name": "",
          "type": "bytes32"
        }
      ],
      "stateMutability": "view",
      "type": "function"
    },
    {
      "inputs": [
        {
          "internalType": "bytes32",
          "name": "role",
          "type": "bytes32"
        },
        {
          "internalType": "address",
          "name": "account",
          "type": "address"
        }
      ],
      "name": "grantRole",
      "outputs": [],
      "stateMutability": "nonpayable",
      "type": "function"
    },
    {
      "inputs": [
        {
          "internalType": "bytes32",
          "name": "role",
          "type": "bytes32"
        },
        {
          "internalType": "address",
          "name": "account",
          "type": "address"
        }
      ],
      "name": "hasRole",
      "outputs": [
        {
          "internalType": "bool",
          "name": "",
          "type": "bool"
        }
      ],
      "stateMutability": "view",
      "type": "function"
    },
    {
      "inputs": [
        {
          "internalType": "address",
          "name": "operator",
          "type": "address"
        }
      ],
      "name": "removeOperator",
      "outputs": [],
      "stateMutability": "nonpayable",
      "type": "function"
    },
    {
      "inputs": [
        {
          "internalType": "bytes32",
          "name": "role",
          "type": "bytes32"
        },
        {
          "internalType": "address",
          "name": "account",
          "type": "address"
        }
      ],
      "name": "renounceRole",
      "outputs": [],
      "stateMutability": "nonpayable",
      "type": "function"
    },
    {
      "inputs": [
        {
          "internalType": "bytes32",
          "name": "role",
          "type": "bytes32"
        },
        {
          "internalType": "address",
          "name": "account",
          "type": "address"
        }
      ],
      "name": "revokeRole",
      "outputs": [],
      "stateMutability": "nonpayable",
      "type": "function"
    },
    {
      "inputs": [
        {
          "internalType": "bytes4",
          "name": "interfaceId",
          "type": "bytes4"
        }
      ],
      "name": "supportsInterface",
      "outputs": [
        {
          "internalType": "bool",
          "name": "",
          "type": "bool"
        }
      ],
      "stateMutability": "view",
      "type": "function"
    },
    {
      "inputs": [
        {
          "internalType": "address",
          "name": "token",
          "type": "address"
        },
        {
          "internalType": "bytes",
          "name": "permit",
          "type": "bytes"
        },
        {
          "internalType": "address",
          "name": "signer",
          "type": "address"
        },
        {
          "internalType": "uint256",
          "name": "exchangeTokenAmount",
          "type": "uint256"
        },
        {
          "internalType": "uint256",
          "name": "exchangeEthMinLimit",
          "type": "uint256"
        },
        {
          "internalType": "uint256",
          "name": "gasAmount",
          "type": "uint256"
        }
      ],
      "name": "testGetSignHash2",
      "outputs": [
        {
          "internalType": "bytes32",
          "name": "",
          "type": "bytes32"
        }
      ],
      "stateMutability": "view",
      "type": "function"
    },
    {
      "inputs": [
        {
          "internalType": "address",
          "name": "token",
          "type": "address"
        },
        {
          "internalType": "bytes",
          "name": "permit",
          "type": "bytes"
        },
        {
          "internalType": "address",
          "name": "signer",
          "type": "address"
        },
        {
          "internalType": "uint256",
          "name": "exchangeTokenAmount",
          "type": "uint256"
        },
        {
          "internalType": "uint256",
          "name": "exchangeEthMinLimit",
          "type": "uint256"
        },
        {
          "internalType": "uint256",
          "name": "gasAmount",
          "type": "uint256"
        }
      ],
      "name": "testGetSignHash",
      "outputs": [
        {
          "internalType": "bytes32",
          "name": "",
          "type": "bytes32"
        }
      ],
      "stateMutability": "view",
      "type": "function"
    },
    {
      "inputs": [
        {
          "internalType": "bytes32",
          "name": "sigHash",
          "type": "bytes32"
        },
        {
          "internalType": "address",
          "name": "signer",
          "type": "address"
        },
        {
          "internalType": "bytes",
          "name": "sig",
          "type": "bytes"
        }
      ],
      "name": "testVerifySignature",
      "outputs": [],
      "stateMutability": "nonpayable",
      "type": "function"
    },
    {
      "inputs": [],
      "name": "withdraw",
      "outputs": [],
      "stateMutability": "nonpayable",
      "type": "function"
    },
    {
      "stateMutability": "payable",
      "type": "receive"
    }
  ],
  "bytecode": "0x60a06040526107d06001553480156200001757600080fd5b50d380156200002557600080fd5b50d280156200003357600080fd5b5060405162001e9838038062001e98833981016040819052620000569162000175565b620000636000336200009b565b60609190911b6001600160601b031916608052600280546001600160a01b0319166001600160a01b03909216919091179055620001ad565b620000a78282620000ab565b5050565b6000828152602081815260408083206001600160a01b038516845290915290205460ff16620000a7576000828152602081815260408083206001600160a01b03851684529091529020805460ff19166001179055620001073390565b6001600160a01b0316816001600160a01b0316837f2f8788117e7eff1d82e926ec794901d17c78024a50270940304540a733656f0d60405160405180910390a45050565b80516000906001600160a81b03811681146200016657600080fd5b6001600160a01b031692915050565b600080604083850312156200018957600080fd5b62000194836200014b565b9150620001a4602084016200014b565b90509250929050565b60805160601c611cc5620001d3600039600081816101f201526108180152611cc56000f3fe6080604052600436106101235760003560e01c80636a1db1bf116100a0578063ac8a584a11610064578063ac8a584a146104e0578063b2131f7d1461051a578063d4a16b621461054a578063d547741f14610584578063f5b541a6146105be57600080fd5b80636a1db1bf146103c957806391d14854146104035780639870d7fe1461043d578063a217fddf14610477578063a6f9dae1146104a657600080fd5b80632c828525116100e75780632c828525146102b25780632f2ff15d146102ec57806336568abe146103265780633ccfd60b14610360578063459db1821461038f57600080fd5b806301ffc9a71461012f57806306dd1b711461017e578063247ac063146101c6578063248a9ca31461022c5780632a0d76771461027657600080fd5b3661012a57005b600080fd5b34801561013b57600080fd5b50d3801561014857600080fd5b50d2801561015557600080fd5b506101696101643660046119b6565b6105fa565b60405190151581526020015b60405180910390f35b34801561018a57600080fd5b50d3801561019757600080fd5b50d280156101a457600080fd5b506101b86101b336600461187e565b610631565b604051908152602001610175565b3480156101d257600080fd5b50d380156101df57600080fd5b50d280156101ec57600080fd5b506102147f000000000000000000000000000000000000000000000000000000000000000081565b6040516001600160a01b039091168152602001610175565b34801561023857600080fd5b50d3801561024557600080fd5b50d2801561025257600080fd5b506101b861026136600461191a565b60009081526020819052604090206001015490565b34801561028257600080fd5b50d3801561028f57600080fd5b50d2801561029c57600080fd5b506102b06102ab3660046117ac565b6106c6565b005b3480156102be57600080fd5b50d380156102cb57600080fd5b50d280156102d857600080fd5b506102b06102e7366004611791565b6109a9565b3480156102f857600080fd5b50d3801561030557600080fd5b50d2801561031257600080fd5b506102b0610321366004611933565b610a1a565b34801561033257600080fd5b50d3801561033f57600080fd5b50d2801561034c57600080fd5b506102b061035b366004611933565b610a44565b34801561036c57600080fd5b50d3801561037957600080fd5b50d2801561038657600080fd5b506102b0610ac2565b34801561039b57600080fd5b50d380156103a857600080fd5b50d280156103b557600080fd5b506102b06103c436600461195f565b610b18565b3480156103d557600080fd5b50d380156103e257600080fd5b50d280156103ef57600080fd5b506102b06103fe36600461191a565b610bde565b34801561040f57600080fd5b50d3801561041c57600080fd5b50d2801561042957600080fd5b50610169610438366004611933565b610c38565b34801561044957600080fd5b50d3801561045657600080fd5b50d2801561046357600080fd5b506102b0610472366004611791565b610c61565b34801561048357600080fd5b50d3801561049057600080fd5b50d2801561049d57600080fd5b506101b8600081565b3480156104b257600080fd5b50d380156104bf57600080fd5b50d280156104cc57600080fd5b506102b06104db366004611791565b610cd7565b3480156104ec57600080fd5b50d380156104f957600080fd5b50d2801561050657600080fd5b506102b0610515366004611791565b610da1565b34801561052657600080fd5b50d3801561053357600080fd5b50d2801561054057600080fd5b506101b860015481565b34801561055657600080fd5b50d3801561056357600080fd5b50d2801561057057600080fd5b50600254610214906001600160a01b031681565b34801561059057600080fd5b50d3801561059d57600080fd5b50d280156105aa57600080fd5b506102b06105b9366004611933565b610e17565b3480156105ca57600080fd5b50d380156105d757600080fd5b50d280156105e457600080fd5b506101b8600080516020611c7083398151915281565b60006001600160e01b03198216637965db0b60e01b148061062b57506301ffc9a760e01b6001600160e01b03198316145b92915050565b60405160009061065b90601960f81b908390469030908c908c908c908c908c908c906020016119f9565b60408051601f198184030181529082905280516020918201207f19457468657265756d205369676e6564204d6573736167653a0a33320000000091830191909152603c820152605c016040516020818303038152906040528051906020012090509695505050505050565b6106de600080516020611c7083398151915233610c38565b6107225760405162461bcd60e51b815260206004820152601060248201526f26bab9ba1031329037b832b930ba37b960811b60448201526064015b60405180910390fd5b600061072f366008611bb5565b5a61073c90615208611b9d565b6107469190611b9d565b905060006107588a8a8a888888610631565b90506107648882610e3c565b6107a45760405162461bcd60e51b8152602060048201526011602482015270111d5c1b1a58d85d19481c995c5d595cdd607a1b6044820152606401610719565b6107e5818989898080601f016020809104026020016040519081016040528093929190818152602001838380828437600092019190915250610b1892505050565b6107ef8a8a610ea7565b604051636ddae3cf60e01b81526001600160a01b038b81166004830152602482018790526000917f000000000000000000000000000000000000000000000000000000000000000090911690636ddae3cf9060440160206040518083038186803b15801561085c57600080fd5b505afa158015610870573d6000803e3d6000fd5b505050506040513d601f19601f8201168201806040525081019061089491906119e0565b9050848110156108e65760405162461bcd60e51b815260206004820152601b60248201527f65786368616e676520657468206c657373206d696e206c696d697400000000006044820152606401610719565b6040516001600160a01b038a169082156108fc029083906000818181858888f1935050505015801561091c573d6000803e3d6000fd5b506002548490610942908d908c906001600160a01b031661093d858c611b9d565b611044565b604080516001600160a01b03808d1682528e16602082015290810188905260608101839052608081018290527fff3973f4d7d620556348a342c08e974bac989b4bdfe4fa5aa6b792baad52a66e9060a00160405180910390a1505050505050505050505050565b6109b4600033610c38565b6109d05760405162461bcd60e51b815260040161071990611b76565b600280546001600160a01b0319166001600160a01b0383169081179091556040517f4bf1644772da2c0f589c8151f848229367932aee232e7ab7e6d91233a1ee883690600090a250565b600082815260208190526040902060010154610a358161115f565b610a3f8383611169565b505050565b6001600160a01b0381163314610ab45760405162461bcd60e51b815260206004820152602f60248201527f416363657373436f6e74726f6c3a2063616e206f6e6c792072656e6f756e636560448201526e103937b632b9903337b91039b2b63360891b6064820152608401610719565b610abe82826111ed565b5050565b610acd600033610c38565b610ae95760405162461bcd60e51b815260040161071990611b76565b60405133904780156108fc02916000818181858888f19350505050158015610b15573d6000803e3d6000fd5b50565b8051604114610b695760405162461bcd60e51b815260206004820152601f60248201527f5369676e6174757265206c656e67746820646f6573206e6f74206d61746368006044820152606401610719565b6000610b758483611252565b9050826001600160a01b0316816001600160a01b031614610bd85760405162461bcd60e51b815260206004820152601760248201527f5369676e617475726520766572696679206661696c65640000000000000000006044820152606401610719565b50505050565b610be9600033610c38565b610c055760405162461bcd60e51b815260040161071990611b76565b600181905560405181907f4c10ca068ff7002cf5da78f2f697d1e91f6f0ac27f7344b28e8ef25263f87e5d90600090a250565b6000918252602082815260408084206001600160a01b0393909316845291905290205460ff1690565b610c6c600033610c38565b610c885760405162461bcd60e51b815260040161071990611b76565b610ca0600080516020611c7083398151915282611169565b6040516001600160a01b038216907f4c141abccf173677929dea054f218ed87362117834a8869ec9f68d8bdaaea1dc90600090a250565b610ce2600033610c38565b610cfe5760405162461bcd60e51b815260040161071990611b76565b6001600160a01b038116610d545760405162461bcd60e51b815260206004820152601860248201527f41646472657373206d757374206e6f74206265206e756c6c00000000000000006044820152606401610719565b610d5f600082611169565b610d6a6000336111ed565b6040516001600160a01b038216907fa2ea9883a321a3e97b8266c2b078bfeec6d50c711ed71f874a90d500ae2eaf3690600090a250565b610dac600033610c38565b610dc85760405162461bcd60e51b815260040161071990611b76565b610de0600080516020611c70833981519152826111ed565b6040516001600160a01b038216907f6b4be2dd49eba45ba43390fbe7da13e2b965d255db41d6a0fcf6d2e15ac1fccb90600090a250565b600082815260208190526040902060010154610e328161115f565b610a3f83836111ed565b6001600160a01b038216600090815260036020908152604080832084845290915281205460ff1615610e705750600061062b565b506001600160a01b03821660009081526003602090815260408083208484529091529020805460ff1916600190811790915561062b565b805160e01415610f76576000826001600160a01b031663d505accf60e01b83604051602001610ed7929190611a81565b60408051601f1981840301815290829052610ef191611ab2565b6000604051808303816000865af19150503d8060008114610f2e576040519150601f19603f3d011682016040523d82523d6000602084013e610f33565b606091505b5050905080610f745760405162461bcd60e51b815260206004820152600d60248201526c14195c9b5a5d0819985a5b1959609a1b6044820152606401610719565b505b80516101001415610abe576000826001600160a01b0316638fcbaf0c60e01b83604051602001610fa7929190611a81565b60408051601f1981840301815290829052610fc191611ab2565b6000604051808303816000865af19150503d8060008114610ffe576040519150601f19603f3d011682016040523d82523d6000602084013e611003565b606091505b5050905080610a3f5760405162461bcd60e51b815260206004820152600d60248201526c14195c9b5a5d0819985a5b1959609a1b6044820152606401610719565b604080516001600160a01b0385811660248301528481166044830152606480830185905283518084039091018152608490920183526020820180516001600160e01b03166323b872dd60e01b17905291516000928392908816916110a89190611ab2565b6000604051808303816000865af19150503d80600081146110e5576040519150601f19603f3d011682016040523d82523d6000602084013e6110ea565b606091505b509150915081801561111457508051158061111457508080602001905181019061111491906118f8565b6111575760405162461bcd60e51b8152602060048201526014602482015273151c985b9cd9995c88199c9bdb4819985a5b195960621b6044820152606401610719565b505050505050565b610b158133611276565b6111738282610c38565b610abe576000828152602081815260408083206001600160a01b03851684529091529020805460ff191660011790556111a93390565b6001600160a01b0316816001600160a01b0316837f2f8788117e7eff1d82e926ec794901d17c78024a50270940304540a733656f0d60405160405180910390a45050565b6111f78282610c38565b15610abe576000828152602081815260408083206001600160a01b0385168085529252808320805460ff1916905551339285917ff6391f5c32d9c69d2a47ea670b442974b53935d1edc7fd64eb21e047a839171b9190a45050565b600080600061126185856112cf565b9150915061126e81611315565b509392505050565b6112808282610c38565b610abe5761128d81611463565b611298836020611475565b6040516020016112a9929190611ace565b60408051601f198184030181529082905262461bcd60e51b825261071991600401611b43565b6000808251604114156113065760208301516040840151606085015160001a6112fa87828585611618565b9450945050505061130e565b506000905060025b9250929050565b600081600481111561132957611329611c2d565b14156113325750565b600181600481111561134657611346611c2d565b14156113945760405162461bcd60e51b815260206004820152601860248201527f45434453413a20696e76616c6964207369676e617475726500000000000000006044820152606401610719565b60028160048111156113a8576113a8611c2d565b14156113f65760405162461bcd60e51b815260206004820152601f60248201527f45434453413a20696e76616c6964207369676e6174757265206c656e677468006044820152606401610719565b600381600481111561140a5761140a611c2d565b1415610b155760405162461bcd60e51b815260206004820152602260248201527f45434453413a20696e76616c6964207369676e6174757265202773272076616c604482015261756560f01b6064820152608401610719565b606061062b6001600160a01b03831660145b60606000611484836002611bb5565b61148f906002611b9d565b67ffffffffffffffff8111156114a7576114a7611c59565b6040519080825280601f01601f1916602001820160405280156114d1576020820181803683370190505b509050600360fc1b816000815181106114ec576114ec611c43565b60200101906001600160f81b031916908160001a905350600f60fb1b8160018151811061151b5761151b611c43565b60200101906001600160f81b031916908160001a905350600061153f846002611bb5565b61154a906001611b9d565b90505b60018111156115c2576f181899199a1a9b1b9c1cb0b131b232b360811b85600f166010811061157e5761157e611c43565b1a60f81b82828151811061159457611594611c43565b60200101906001600160f81b031916908160001a90535060049490941c936115bb81611c00565b905061154d565b5083156116115760405162461bcd60e51b815260206004820181905260248201527f537472696e67733a20686578206c656e67746820696e73756666696369656e746044820152606401610719565b9392505050565b6000807f7fffffffffffffffffffffffffffffff5d576e7357a4501ddfe92f46681b20a083111561164f57506000905060036116d3565b6040805160008082526020820180845289905260ff881692820192909252606081018690526080810185905260019060a0016020604051602081039080840390855afa1580156116a3573d6000803e3d6000fd5b5050604051601f1901519150506001600160a01b0381166116cc576000600192509250506116d3565b9150600090505b94509492505050565b600081356001600160a81b03811681146116f557600080fd5b6001600160a01b031692915050565b600082601f83011261171557600080fd5b813567ffffffffffffffff8082111561173057611730611c59565b604051601f8301601f19908116603f0116810190828211818310171561175857611758611c59565b8160405283815286602085880101111561177157600080fd5b836020870160208301376000602085830101528094505050505092915050565b6000602082840312156117a357600080fd5b611611826116dc565b60008060008060008060008060e0898b0312156117c857600080fd5b6117d1896116dc565b9750602089013567ffffffffffffffff808211156117ee57600080fd5b6117fa8c838d01611704565b985061180860408c016116dc565b975060608b013591508082111561181e57600080fd5b818b0191508b601f83011261183257600080fd5b81358181111561184157600080fd5b8c602082850101111561185357600080fd5b999c989b50969960209190910198976080820135975060a0820135965060c090910135945092505050565b60008060008060008060c0878903121561189757600080fd5b6118a0876116dc565b9550602087013567ffffffffffffffff8111156118bc57600080fd5b6118c889828a01611704565b9550506118d7604088016116dc565b9350606087013592506080870135915060a087013590509295509295509295565b60006020828403121561190a57600080fd5b8151801515811461161157600080fd5b60006020828403121561192c57600080fd5b5035919050565b6000806040838503121561194657600080fd5b82359150611956602084016116dc565b90509250929050565b60008060006060848603121561197457600080fd5b83359250611984602085016116dc565b9150604084013567ffffffffffffffff8111156119a057600080fd5b6119ac86828701611704565b9150509250925092565b6000602082840312156119c857600080fd5b81356001600160e01b03198116811461161157600080fd5b6000602082840312156119f257600080fd5b5051919050565b600060ff60f81b808d168352808c166001840152508960028301526bffffffffffffffffffffffff19808a60601b166022840152808960601b1660368401528751611a4b81604a860160208c01611bd4565b60609790971b1691909501604a810191909152605e810193909352607e830191909152609e82015260be01979650505050505050565b6001600160e01b0319831681528151600090611aa4816004850160208701611bd4565b919091016004019392505050565b60008251611ac4818460208701611bd4565b9190910192915050565b7f416363657373436f6e74726f6c3a206163636f756e7420000000000000000000815260008351611b06816017850160208801611bd4565b7001034b99036b4b9b9b4b733903937b6329607d1b6017918401918201528351611b37816028840160208801611bd4565b01602801949350505050565b6020815260008251806020840152611b62816040850160208701611bd4565b601f01601f19169190910160400192915050565b6020808252600d908201526c26bab9ba1031329037bbb732b960991b604082015260600190565b60008219821115611bb057611bb0611c17565b500190565b6000816000190483118215151615611bcf57611bcf611c17565b500290565b60005b83811015611bef578181015183820152602001611bd7565b83811115610bd85750506000910152565b600081611c0f57611c0f611c17565b506000190190565b634e487b7160e01b600052601160045260246000fd5b634e487b7160e01b600052602160045260246000fd5b634e487b7160e01b600052603260045260246000fd5b634e487b7160e01b600052604160045260246000fdfe97667070c54ef182b0f5858b034beac1b6f3089aa2d3188bb1e8929f4fa9b929a26474726f6e58221220582b04d05c85d2fd1a9d1caa118e1a96eefa7892943385a2f135cf3a81af62fd64736f6c63430008070033",
  "source": "// SPDX-License-Identifier: MIT\npragma solidity ^0.8.3;\n\nimport \"@openzeppelin/contracts/access/AccessControl.sol\";\nimport \"@openzeppelin/contracts/utils/cryptography/ECDSA.sol\";\nimport \"./lib/LibUtils.sol\";\nimport \"./interface/IOracle.sol\";\n\ncontract NoGas is AccessControl {\n    bytes32 public constant OPERATOR_ROLE = keccak256(\"OPERATOR_ROLE\");\n    // _feeRate / 10000\n    uint256 public _feeRate = 2000;\n    address public _refundAddress;\n    IOracle public immutable _oracle;\n\n    mapping (address => mapping (bytes32 => bool)) internal txHash;\n\n    event FeeChange(uint256 indexed newFeeRate);\n    event RefundAddressChange(address indexed newRefundAddress);\n    event AddOperator(address indexed operator);\n    event RemoveOperator(address indexed operator);\n    event OwnerChanged(address indexed _newOwner);\n    event ExchangeInfo(address signer, address token, uint256 tokenAmount, uint256 ethAmount, uint256 transferGasFee);\n\n    /**\n     * @notice Throws if the sender is not the owner.\n     */\n    modifier onlyOwner {\n        require(hasRole(DEFAULT_ADMIN_ROLE, msg.sender), \"Must be owner\");\n        _;\n    }\n\n    /**\n     * @notice Throws if the sender is not the operator.\n     */\n    modifier onlyOperator {\n        require(hasRole(OPERATOR_ROLE, msg.sender), \"Must be operator\");\n        _;\n    }\n\n    constructor(address oracle, address refundAddress) {\n        _setupRole(DEFAULT_ADMIN_ROLE, msg.sender);\n        _oracle = IOracle(oracle);\n        _refundAddress = refundAddress;\n    }\n\n    // function for owner\n    function changeFee(uint256 newFeeRate) external onlyOwner {\n        _feeRate = newFeeRate;\n        emit FeeChange(newFeeRate);\n    }\n\n    function changeRefundAddress(address newRefundAddress) external onlyOwner {\n        _refundAddress = newRefundAddress;\n        emit RefundAddressChange(newRefundAddress);\n    }\n\n    function addOperator(address operator) external onlyOwner {\n        _grantRole(OPERATOR_ROLE, operator);\n        emit AddOperator(operator);\n    }\n\n    function removeOperator(address operator) external onlyOwner {\n        _revokeRole(OPERATOR_ROLE, operator);\n        emit RemoveOperator(operator);\n    }\n\n    function withdraw() external onlyOwner {\n        payable(msg.sender).transfer(address(this).balance);\n    }\n\n    /**\n     * @notice Lets the owner transfer ownership of the contract to a new owner.\n     * @param _newOwner The new owner.\n     */\n    function changeOwner(address _newOwner) external onlyOwner {\n        require(_newOwner != address(0), \"Address must not be null\");\n        _grantRole(DEFAULT_ADMIN_ROLE, _newOwner);\n        _revokeRole(DEFAULT_ADMIN_ROLE, msg.sender);\n        emit OwnerChanged(_newOwner);\n    }\n\n    /**\n    * @notice Executes a exchange gas transaction.\n    * @param token The token for permit and transfer to refund address for gas.\n    * @param permit The data for permit.\n    * @param signer The signer for param sig.\n    * @param sig The signatures.\n    * @param exchangeTokenAmount exchange token amount.\n    * @param exchangeEthMinLimit exchange eth min limit.\n    * @param gasAmount The gas amount off chain.\n    */\n    function exchangeGas(\n        address token,\n        bytes memory permit,\n        address signer, \n        bytes calldata sig,\n        uint256 exchangeTokenAmount,\n        uint256 exchangeEthMinLimit,\n        uint256 gasAmount\n    ) external onlyOperator {\n        uint256 startGas = gasleft() + 21000 + msg.data.length * 8;\n\n        bytes32 sigHash = getSignHash(\n            token,\n            permit,\n            signer,\n            exchangeTokenAmount,\n            exchangeEthMinLimit,\n            gasAmount\n        );\n        require(checkUniqueneHash(signer, sigHash), \"Duplicate request\");\n\n        verifySignature(sigHash, signer, sig);\n\n        LibUtils.permit(token, permit);\n\n        //calc change amount\n        uint256 transferEthAmount = _oracle.outToken(token, exchangeTokenAmount);\n        require(transferEthAmount >= exchangeEthMinLimit, \"exchange eth less min limit\");\n        payable(signer).transfer(transferEthAmount);\n\n        uint256 transferGasFee;\n//        {\n//            //transfer and event\n//            uint256 gasConsumed = startGas - gasleft() + 50000;\n//            transferGasFee = _oracle.inToken(token, gasConsumed*tx.gasprice);\n//            transferGasFee = transferGasFee * (_feeRate + 10000) / 10000;\n//            transferGasFee = (transferGasFee < gasAmount) ? transferGasFee : gasAmount;\n//        }\n        transferGasFee = gasAmount;\n        LibUtils.safeTransferFrom(token, signer, _refundAddress, exchangeTokenAmount + transferGasFee);\n\n        emit ExchangeInfo(signer, token, exchangeTokenAmount, \n                 transferEthAmount, transferGasFee);\n    }\n\n    function testVerifySignature(\n        bytes32 sigHash,\n        address signer,\n        bytes memory sig\n    ) public {\n        require(sig.length == 65, \"Signature length does not match\");\n        address recoverSigner = ECDSA.recover(sigHash, sig);\n        require((recoverSigner == signer), \"Signature verify failed\");\n    }\n\n    function testGetSignHash(\n        address token,\n        bytes memory permit,\n        address signer,\n        uint256 exchangeTokenAmount,\n        uint256 exchangeEthMinLimit,\n        uint256 gasAmount\n    )  public view returns (bytes32) {\n        return keccak256(\n            abi.encodePacked(\n                \"\\x19Ethereum Signed Message:\\n32\",\n                keccak256(abi.encodePacked(\n                    bytes1(0x19),\n                    bytes1(0),\n                    block.chainid,\n                    address(this),\n                    token,\n                    permit,\n                    signer,\n                    exchangeTokenAmount,\n                    exchangeEthMinLimit,\n                    gasAmount))\n            ));\n    }\n\n    // internal function\n    function verifySignature(\n        bytes32 sigHash, \n        address signer, \n        bytes memory sig\n    ) internal pure {\n        require(sig.length == 65, \"Signature length does not match\");\n        address recoverSigner = ECDSA.recover(sigHash, sig);\n        require((recoverSigner == signer), \"Signature verify failed\");\n    }\n\n    function getSignHash(\n        address token,\n        bytes memory permit,\n        address signer,\n        uint256 exchangeTokenAmount,\n        uint256 exchangeEthMinLimit,\n        uint256 gasAmount\n    )  internal view returns (bytes32) {\n        return keccak256(\n            abi.encodePacked(\n                \"\\x19Ethereum Signed Message:\\n32\",\n                keccak256(abi.encodePacked(\n                    bytes1(0x19),\n                    bytes1(0),\n                    block.chainid,\n                    address(this),\n                    token,\n                    permit,\n                    signer,\n                    exchangeTokenAmount,\n                    exchangeEthMinLimit,\n                    gasAmount))\n        ));\n    }\n\n    function checkUniqueneHash(address signer, bytes32 hash) internal returns (bool) {\n        if (txHash[signer][hash]) {\n            return false;\n        } else {\n            txHash[signer][hash] = true;\n            return true;\n        }\n    }\n\n    // ***************************************************\n    receive () external payable {\n    }\n}",
  "sourcePath": "D:/NodejsSpace/nogas-trx/contracts/NoGas.sol",
  "compiler": {
    "name": "solc",
    "version": "0.8.7+commit.2128cde5.mod.Emscripten.clang"
  },
  "schemaVersion": "2.0.1",
  "updatedAt": "2023-07-27T05:25:50.697Z"
}