{
  "_format": "hh-sol-artifact-1",
  "contractName": "Usdc",
  "sourceName": "contracts/token/Usdc.sol",
  "abi": [
    {
      "inputs": [],
      "stateMutability": "nonpayable",
      "type": "constructor"
    },
    {
      "inputs": [],
      "name": "InvalidShortString",
      "type": "error"
    },
    {
      "inputs": [
        {
          "internalType": "string",
          "name": "str",
          "type": "string"
        }
      ],
      "name": "StringTooLong",
      "type": "error"
    },
    {
      "anonymous": false,
      "inputs": [
        {
          "indexed": true,
          "internalType": "address",
          "name": "owner",
          "type": "address"
        },
        {
          "indexed": true,
          "internalType": "address",
          "name": "spender",
          "type": "address"
        },
        {
          "indexed": false,
          "internalType": "uint256",
          "name": "value",
          "type": "uint256"
        }
      ],
      "name": "Approval",
      "type": "event"
    },
    {
      "anonymous": false,
      "inputs": [],
      "name": "EIP712DomainChanged",
      "type": "event"
    },
    {
      "anonymous": false,
      "inputs": [
        {
          "indexed": true,
          "internalType": "address",
          "name": "previousOwner",
          "type": "address"
        },
        {
          "indexed": true,
          "internalType": "address",
          "name": "newOwner",
          "type": "address"
        }
      ],
      "name": "OwnershipTransferred",
      "type": "event"
    },
    {
      "anonymous": false,
      "inputs": [
        {
          "indexed": true,
          "internalType": "address",
          "name": "from",
          "type": "address"
        },
        {
          "indexed": true,
          "internalType": "address",
          "name": "to",
          "type": "address"
        },
        {
          "indexed": false,
          "internalType": "uint256",
          "name": "value",
          "type": "uint256"
        }
      ],
      "name": "Transfer",
      "type": "event"
    },
    {
      "inputs": [],
      "name": "DOMAIN_SEPARATOR",
      "outputs": [
        {
          "internalType": "bytes32",
          "name": "",
          "type": "bytes32"
        }
      ],
      "stateMutability": "view",
      "type": "function"
    },
    {
      "inputs": [
        {
          "internalType": "address",
          "name": "owner",
          "type": "address"
        },
        {
          "internalType": "address",
          "name": "spender",
          "type": "address"
        }
      ],
      "name": "allowance",
      "outputs": [
        {
          "internalType": "uint256",
          "name": "",
          "type": "uint256"
        }
      ],
      "stateMutability": "view",
      "type": "function"
    },
    {
      "inputs": [
        {
          "internalType": "address",
          "name": "spender",
          "type": "address"
        },
        {
          "internalType": "uint256",
          "name": "amount",
          "type": "uint256"
        }
      ],
      "name": "approve",
      "outputs": [
        {
          "internalType": "bool",
          "name": "",
          "type": "bool"
        }
      ],
      "stateMutability": "nonpayable",
      "type": "function"
    },
    {
      "inputs": [
        {
          "internalType": "address",
          "name": "account",
          "type": "address"
        }
      ],
      "name": "balanceOf",
      "outputs": [
        {
          "internalType": "uint256",
          "name": "",
          "type": "uint256"
        }
      ],
      "stateMutability": "view",
      "type": "function"
    },
    {
      "inputs": [],
      "name": "decimals",
      "outputs": [
        {
          "internalType": "uint8",
          "name": "",
          "type": "uint8"
        }
      ],
      "stateMutability": "view",
      "type": "function"
    },
    {
      "inputs": [
        {
          "internalType": "address",
          "name": "spender",
          "type": "address"
        },
        {
          "internalType": "uint256",
          "name": "subtractedValue",
          "type": "uint256"
        }
      ],
      "name": "decreaseAllowance",
      "outputs": [
        {
          "internalType": "bool",
          "name": "",
          "type": "bool"
        }
      ],
      "stateMutability": "nonpayable",
      "type": "function"
    },
    {
      "inputs": [],
      "name": "eip712Domain",
      "outputs": [
        {
          "internalType": "bytes1",
          "name": "fields",
          "type": "bytes1"
        },
        {
          "internalType": "string",
          "name": "name",
          "type": "string"
        },
        {
          "internalType": "string",
          "name": "version",
          "type": "string"
        },
        {
          "internalType": "uint256",
          "name": "chainId",
          "type": "uint256"
        },
        {
          "internalType": "address",
          "name": "verifyingContract",
          "type": "address"
        },
        {
          "internalType": "bytes32",
          "name": "salt",
          "type": "bytes32"
        },
        {
          "internalType": "uint256[]",
          "name": "extensions",
          "type": "uint256[]"
        }
      ],
      "stateMutability": "view",
      "type": "function"
    },
    {
      "inputs": [
        {
          "internalType": "address",
          "name": "spender",
          "type": "address"
        },
        {
          "internalType": "uint256",
          "name": "addedValue",
          "type": "uint256"
        }
      ],
      "name": "increaseAllowance",
      "outputs": [
        {
          "internalType": "bool",
          "name": "",
          "type": "bool"
        }
      ],
      "stateMutability": "nonpayable",
      "type": "function"
    },
    {
      "inputs": [
        {
          "internalType": "address",
          "name": "to",
          "type": "address"
        },
        {
          "internalType": "uint256",
          "name": "amount",
          "type": "uint256"
        }
      ],
      "name": "mint",
      "outputs": [],
      "stateMutability": "nonpayable",
      "type": "function"
    },
    {
      "inputs": [],
      "name": "name",
      "outputs": [
        {
          "internalType": "string",
          "name": "",
          "type": "string"
        }
      ],
      "stateMutability": "view",
      "type": "function"
    },
    {
      "inputs": [
        {
          "internalType": "address",
          "name": "owner",
          "type": "address"
        }
      ],
      "name": "nonces",
      "outputs": [
        {
          "internalType": "uint256",
          "name": "",
          "type": "uint256"
        }
      ],
      "stateMutability": "view",
      "type": "function"
    },
    {
      "inputs": [],
      "name": "owner",
      "outputs": [
        {
          "internalType": "address",
          "name": "",
          "type": "address"
        }
      ],
      "stateMutability": "view",
      "type": "function"
    },
    {
      "inputs": [
        {
          "internalType": "address",
          "name": "owner",
          "type": "address"
        },
        {
          "internalType": "address",
          "name": "spender",
          "type": "address"
        },
        {
          "internalType": "uint256",
          "name": "value",
          "type": "uint256"
        },
        {
          "internalType": "uint256",
          "name": "deadline",
          "type": "uint256"
        },
        {
          "internalType": "uint8",
          "name": "v",
          "type": "uint8"
        },
        {
          "internalType": "bytes32",
          "name": "r",
          "type": "bytes32"
        },
        {
          "internalType": "bytes32",
          "name": "s",
          "type": "bytes32"
        }
      ],
      "name": "permit",
      "outputs": [],
      "stateMutability": "nonpayable",
      "type": "function"
    },
    {
      "inputs": [],
      "name": "renounceOwnership",
      "outputs": [],
      "stateMutability": "nonpayable",
      "type": "function"
    },
    {
      "inputs": [],
      "name": "symbol",
      "outputs": [
        {
          "internalType": "string",
          "name": "",
          "type": "string"
        }
      ],
      "stateMutability": "view",
      "type": "function"
    },
    {
      "inputs": [],
      "name": "totalSupply",
      "outputs": [
        {
          "internalType": "uint256",
          "name": "",
          "type": "uint256"
        }
      ],
      "stateMutability": "view",
      "type": "function"
    },
    {
      "inputs": [
        {
          "internalType": "address",
          "name": "to",
          "type": "address"
        },
        {
          "internalType": "uint256",
          "name": "amount",
          "type": "uint256"
        }
      ],
      "name": "transfer",
      "outputs": [
        {
          "internalType": "bool",
          "name": "",
          "type": "bool"
        }
      ],
      "stateMutability": "nonpayable",
      "type": "function"
    },
    {
      "inputs": [
        {
          "internalType": "address",
          "name": "from",
          "type": "address"
        },
        {
          "internalType": "address",
          "name": "to",
          "type": "address"
        },
        {
          "internalType": "uint256",
          "name": "amount",
          "type": "uint256"
        }
      ],
      "name": "transferFrom",
      "outputs": [
        {
          "internalType": "bool",
          "name": "",
          "type": "bool"
        }
      ],
      "stateMutability": "nonpayable",
      "type": "function"
    },
    {
      "inputs": [
        {
          "internalType": "address",
          "name": "newOwner",
          "type": "address"
        }
      ],
      "name": "transferOwnership",
      "outputs": [],
      "stateMutability": "nonpayable",
      "type": "function"
    }
  ],
  "bytecode": "0x6101606040523480156200001257600080fd5b50604051806040016040528060048152602001635573646360e01b81525080604051806040016040528060018152602001603160f81b815250604051806040016040528060048152602001635573646360e01b815250604051806040016040528060048152602001635573646360e01b8152508160039081620000969190620003e9565b506004620000a58282620003e9565b505050620000c2620000bc620001a760201b60201c565b620001ab565b620000cf826006620001fd565b61012052620000e0816007620001fd565b61014052815160208084019190912060e052815190820120610100524660a0526200016e60e05161010051604080517f8b73c3c69bb8fe3d512ecc4cf759cc79239f7b179b0ffacaa9a75d522b39400f60208201529081019290925260608201524660808201523060a082015260009060c00160405160208183030381529060405280519060200120905090565b60805250503060c05250620001a1336200018b6012600a620005c8565b6200019b90633b9aca00620005e0565b62000236565b62000685565b3390565b600580546001600160a01b038381166001600160a01b0319831681179093556040519116919082907f8be0079c531659141344cd1fd0a4f28419497f9722a3daafe3b4186f6b6457e090600090a35050565b60006020835110156200021d576200021583620002fd565b905062000230565b816200022a8482620003e9565b5060ff90505b92915050565b6001600160a01b038216620002925760405162461bcd60e51b815260206004820152601f60248201527f45524332303a206d696e7420746f20746865207a65726f20616464726573730060448201526064015b60405180910390fd5b8060026000828254620002a69190620005fa565b90915550506001600160a01b038216600081815260208181526040808320805486019055518481527fddf252ad1be2c89b69c2b068fc378daa952ba7f163c4a11628f55a4df523b3ef910160405180910390a35050565b600080829050601f815111156200032b578260405163305a27a960e01b815260040162000289919062000610565b8051620003388262000660565b179392505050565b505050565b634e487b7160e01b600052604160045260246000fd5b600181811c908216806200037057607f821691505b6020821081036200039157634e487b7160e01b600052602260045260246000fd5b50919050565b601f8211156200034057600081815260208120601f850160051c81016020861015620003c05750805b601f850160051c820191505b81811015620003e157828155600101620003cc565b505050505050565b81516001600160401b0381111562000405576200040562000345565b6200041d816200041684546200035b565b8462000397565b602080601f8311600181146200045557600084156200043c5750858301515b600019600386901b1c1916600185901b178555620003e1565b600085815260208120601f198616915b82811015620004865788860151825594840194600190910190840162000465565b5085821015620004a55787850151600019600388901b60f8161c191681555b5050505050600190811b01905550565b634e487b7160e01b600052601160045260246000fd5b600181815b808511156200050c578160001904821115620004f057620004f0620004b5565b80851615620004fe57918102915b93841c9390800290620004d0565b509250929050565b600082620005255750600162000230565b81620005345750600062000230565b81600181146200054d5760028114620005585762000578565b600191505062000230565b60ff8411156200056c576200056c620004b5565b50506001821b62000230565b5060208310610133831016604e8410600b84101617156200059d575081810a62000230565b620005a98383620004cb565b8060001904821115620005c057620005c0620004b5565b029392505050565b6000620005d960ff84168362000514565b9392505050565b8082028115828204841417620002305762000230620004b5565b80820180821115620002305762000230620004b5565b600060208083528351808285015260005b818110156200063f5785810183015185820160400152820162000621565b506000604082860101526040601f19601f8301168501019250505092915050565b80516020808301519190811015620003915760001960209190910360031b1b16919050565b60805160a05160c05160e051610100516101205161014051611343620006e0600039600061040e015260006103e301526000610b1f01526000610af701526000610a5201526000610a7c01526000610aa601526113436000f3fe608060405234801561001057600080fd5b50600436106101015760003560e01c8063715018a61161009d578063715018a6146101d45780637ecebe00146101dc57806384b0196e146101ef5780638da5cb5b1461020a57806395d89b4114610225578063a457c2d71461022d578063a9059cbb14610240578063d505accf14610253578063dd62ed3e14610266578063f2fde38b1461027957600080fd5b806306fdde0314610106578063095ea7b31461012457806318160ddd1461014757806323b872dd14610159578063313ce5671461016c5780633644e5151461017b578063395093511461018357806340c10f191461019657806370a08231146101ab575b600080fd5b61010e61028c565b60405161011b91906110af565b60405180910390f35b6101376101323660046110e5565b61031e565b604051901515815260200161011b565b6002545b60405190815260200161011b565b61013761016736600461110f565b610338565b6040516012815260200161011b565b61014b61035c565b6101376101913660046110e5565b61036b565b6101a96101a43660046110e5565b61038d565b005b61014b6101b936600461114b565b6001600160a01b031660009081526020819052604090205490565b6101a96103a3565b61014b6101ea36600461114b565b6103b7565b6101f76103d5565b60405161011b9796959493929190611166565b6005546040516001600160a01b03909116815260200161011b565b61010e61045e565b61013761023b3660046110e5565b61046d565b61013761024e3660046110e5565b6104ed565b6101a96102613660046111fc565b6104fb565b61014b61027436600461126f565b61065f565b6101a961028736600461114b565b61068a565b60606003805461029b906112a2565b80601f01602080910402602001604051908101604052809291908181526020018280546102c7906112a2565b80156103145780601f106102e957610100808354040283529160200191610314565b820191906000526020600020905b8154815290600101906020018083116102f757829003601f168201915b5050505050905090565b60003361032c818585610703565b60019150505b92915050565b600033610346858285610827565b6103518585856108a1565b506001949350505050565b6000610366610a45565b905090565b60003361032c81858561037e838361065f565b61038891906112d6565b610703565b610395610b70565b61039f8282610bca565b5050565b6103ab610b70565b6103b56000610c89565b565b6001600160a01b038116600090815260086020526040812054610332565b6000606080828080836104097f00000000000000000000000000000000000000000000000000000000000000006006610cdb565b6104347f00000000000000000000000000000000000000000000000000000000000000006007610cdb565b60408051600080825260208201909252600f60f81b9b939a50919850469750309650945092509050565b60606004805461029b906112a2565b6000338161047b828661065f565b9050838110156104e05760405162461bcd60e51b815260206004820152602560248201527f45524332303a2064656372656173656420616c6c6f77616e63652062656c6f77604482015264207a65726f60d81b60648201526084015b60405180910390fd5b6103518286868403610703565b60003361032c8185856108a1565b8342111561054b5760405162461bcd60e51b815260206004820152601d60248201527f45524332305065726d69743a206578706972656420646561646c696e6500000060448201526064016104d7565b60007f6e71edae12b1b97f4d1f60370fef10105fa2faae0126114a169c64845d6126c988888861057a8c610d86565b6040805160208101969096526001600160a01b0394851690860152929091166060840152608083015260a082015260c0810186905260e00160405160208183030381529060405280519060200120905060006105d582610dae565b905060006105e582878787610ddb565b9050896001600160a01b0316816001600160a01b0316146106485760405162461bcd60e51b815260206004820152601e60248201527f45524332305065726d69743a20696e76616c6964207369676e6174757265000060448201526064016104d7565b6106538a8a8a610703565b50505050505050505050565b6001600160a01b03918216600090815260016020908152604080832093909416825291909152205490565b610692610b70565b6001600160a01b0381166106f75760405162461bcd60e51b815260206004820152602660248201527f4f776e61626c653a206e6577206f776e657220697320746865207a65726f206160448201526564647265737360d01b60648201526084016104d7565b61070081610c89565b50565b6001600160a01b0383166107655760405162461bcd60e51b8152602060048201526024808201527f45524332303a20617070726f76652066726f6d20746865207a65726f206164646044820152637265737360e01b60648201526084016104d7565b6001600160a01b0382166107c65760405162461bcd60e51b815260206004820152602260248201527f45524332303a20617070726f766520746f20746865207a65726f206164647265604482015261737360f01b60648201526084016104d7565b6001600160a01b0383811660008181526001602090815260408083209487168084529482529182902085905590518481527f8c5be1e5ebec7d5bd14f71427d1e84f3dd0314c0f7b2291e5b200ac8c7c3b925910160405180910390a3505050565b6000610833848461065f565b9050600019811461089b578181101561088e5760405162461bcd60e51b815260206004820152601d60248201527f45524332303a20696e73756666696369656e7420616c6c6f77616e636500000060448201526064016104d7565b61089b8484848403610703565b50505050565b6001600160a01b0383166109055760405162461bcd60e51b815260206004820152602560248201527f45524332303a207472616e736665722066726f6d20746865207a65726f206164604482015264647265737360d81b60648201526084016104d7565b6001600160a01b0382166109675760405162461bcd60e51b815260206004820152602360248201527f45524332303a207472616e7366657220746f20746865207a65726f206164647260448201526265737360e81b60648201526084016104d7565b6001600160a01b038316600090815260208190526040902054818110156109df5760405162461bcd60e51b815260206004820152602660248201527f45524332303a207472616e7366657220616d6f756e7420657863656564732062604482015265616c616e636560d01b60648201526084016104d7565b6001600160a01b03848116600081815260208181526040808320878703905593871680835291849020805487019055925185815290927fddf252ad1be2c89b69c2b068fc378daa952ba7f163c4a11628f55a4df523b3ef910160405180910390a361089b565b6000306001600160a01b037f000000000000000000000000000000000000000000000000000000000000000016148015610a9e57507f000000000000000000000000000000000000000000000000000000000000000046145b15610ac857507f000000000000000000000000000000000000000000000000000000000000000090565b610366604080517f8b73c3c69bb8fe3d512ecc4cf759cc79239f7b179b0ffacaa9a75d522b39400f60208201527f0000000000000000000000000000000000000000000000000000000000000000918101919091527f000000000000000000000000000000000000000000000000000000000000000060608201524660808201523060a082015260009060c00160405160208183030381529060405280519060200120905090565b6005546001600160a01b031633146103b55760405162461bcd60e51b815260206004820181905260248201527f4f776e61626c653a2063616c6c6572206973206e6f7420746865206f776e657260448201526064016104d7565b6001600160a01b038216610c205760405162461bcd60e51b815260206004820152601f60248201527f45524332303a206d696e7420746f20746865207a65726f20616464726573730060448201526064016104d7565b8060026000828254610c3291906112d6565b90915550506001600160a01b038216600081815260208181526040808320805486019055518481527fddf252ad1be2c89b69c2b068fc378daa952ba7f163c4a11628f55a4df523b3ef910160405180910390a35050565b600580546001600160a01b038381166001600160a01b0319831681179093556040519116919082907f8be0079c531659141344cd1fd0a4f28419497f9722a3daafe3b4186f6b6457e090600090a35050565b606060ff8314610cf557610cee83610e03565b9050610332565b818054610d01906112a2565b80601f0160208091040260200160405190810160405280929190818152602001828054610d2d906112a2565b8015610d7a5780601f10610d4f57610100808354040283529160200191610d7a565b820191906000526020600020905b815481529060010190602001808311610d5d57829003601f168201915b50505050509050610332565b6001600160a01b03811660009081526008602052604090208054600181018255905b50919050565b6000610332610dbb610a45565b8360405161190160f01b8152600281019290925260228201526042902090565b6000806000610dec87878787610e42565b91509150610df981610efc565b5095945050505050565b60606000610e1083611041565b604080516020808252818301909252919250600091906020820181803683375050509182525060208101929092525090565b6000806fa2a8918ca85bafe22016d0b997e4df60600160ff1b03831115610e6f5750600090506003610ef3565b6040805160008082526020820180845289905260ff881692820192909252606081018690526080810185905260019060a0016020604051602081039080840390855afa158015610ec3573d6000803e3d6000fd5b5050604051601f1901519150506001600160a01b038116610eec57600060019250925050610ef3565b9150600090505b94509492505050565b6000816004811115610f1057610f106112f7565b03610f185750565b6001816004811115610f2c57610f2c6112f7565b03610f745760405162461bcd60e51b815260206004820152601860248201527745434453413a20696e76616c6964207369676e617475726560401b60448201526064016104d7565b6002816004811115610f8857610f886112f7565b03610fd55760405162461bcd60e51b815260206004820152601f60248201527f45434453413a20696e76616c6964207369676e6174757265206c656e6774680060448201526064016104d7565b6003816004811115610fe957610fe96112f7565b036107005760405162461bcd60e51b815260206004820152602260248201527f45434453413a20696e76616c6964207369676e6174757265202773272076616c604482015261756560f01b60648201526084016104d7565b600060ff8216601f81111561033257604051632cd44ac360e21b815260040160405180910390fd5b6000815180845260005b8181101561108f57602081850181015186830182015201611073565b506000602082860101526020601f19601f83011685010191505092915050565b6020815260006110c26020830184611069565b9392505050565b80356001600160a01b03811681146110e057600080fd5b919050565b600080604083850312156110f857600080fd5b611101836110c9565b946020939093013593505050565b60008060006060848603121561112457600080fd5b61112d846110c9565b925061113b602085016110c9565b9150604084013590509250925092565b60006020828403121561115d57600080fd5b6110c2826110c9565b60ff60f81b881681526000602060e08184015261118660e084018a611069565b8381036040850152611198818a611069565b606085018990526001600160a01b038816608086015260a0850187905284810360c0860152855180825283870192509083019060005b818110156111ea578351835292840192918401916001016111ce565b50909c9b505050505050505050505050565b600080600080600080600060e0888a03121561121757600080fd5b611220886110c9565b965061122e602089016110c9565b95506040880135945060608801359350608088013560ff8116811461125257600080fd5b9699959850939692959460a0840135945060c09093013592915050565b6000806040838503121561128257600080fd5b61128b836110c9565b9150611299602084016110c9565b90509250929050565b600181811c908216806112b657607f821691505b602082108103610da857634e487b7160e01b600052602260045260246000fd5b8082018082111561033257634e487b7160e01b600052601160045260246000fd5b634e487b7160e01b600052602160045260246000fdfea264697066735822122015cabcb5ee41e9fddf07002bc55cd30f4cc086e029d6198c1105410e365d4d3564736f6c63430008130033",
  "linkReferences": {},
  "deployedLinkReferences": {}
}