{
  "contractName": "ENSRegistry",
  "abi": [
    {
      "inputs": [],
      "stateMutability": "nonpayable",
      "type": "constructor"
    },
    {
      "anonymous": false,
      "inputs": [
        {
          "indexed": true,
          "internalType": "address",
          "name": "owner",
          "type": "address"
        },
        {
          "indexed": true,
          "internalType": "address",
          "name": "operator",
          "type": "address"
        },
        {
          "indexed": false,
          "internalType": "bool",
          "name": "approved",
          "type": "bool"
        }
      ],
      "name": "ApprovalForAll",
      "type": "event"
    },
    {
      "anonymous": false,
      "inputs": [
        {
          "indexed": true,
          "internalType": "bytes32",
          "name": "node",
          "type": "bytes32"
        },
        {
          "indexed": true,
          "internalType": "bytes32",
          "name": "label",
          "type": "bytes32"
        },
        {
          "indexed": false,
          "internalType": "address",
          "name": "owner",
          "type": "address"
        }
      ],
      "name": "NewOwner",
      "type": "event"
    },
    {
      "anonymous": false,
      "inputs": [
        {
          "indexed": true,
          "internalType": "bytes32",
          "name": "node",
          "type": "bytes32"
        },
        {
          "indexed": false,
          "internalType": "address",
          "name": "resolver",
          "type": "address"
        }
      ],
      "name": "NewResolver",
      "type": "event"
    },
    {
      "anonymous": false,
      "inputs": [
        {
          "indexed": true,
          "internalType": "bytes32",
          "name": "node",
          "type": "bytes32"
        },
        {
          "indexed": false,
          "internalType": "uint64",
          "name": "ttl",
          "type": "uint64"
        }
      ],
      "name": "NewTTL",
      "type": "event"
    },
    {
      "anonymous": false,
      "inputs": [
        {
          "indexed": true,
          "internalType": "bytes32",
          "name": "node",
          "type": "bytes32"
        },
        {
          "indexed": false,
          "internalType": "address",
          "name": "owner",
          "type": "address"
        }
      ],
      "name": "Transfer",
      "type": "event"
    },
    {
      "inputs": [
        {
          "internalType": "address",
          "name": "owner",
          "type": "address"
        },
        {
          "internalType": "address",
          "name": "operator",
          "type": "address"
        }
      ],
      "name": "isApprovedForAll",
      "outputs": [
        {
          "internalType": "bool",
          "name": "",
          "type": "bool"
        }
      ],
      "stateMutability": "view",
      "type": "function"
    },
    {
      "inputs": [
        {
          "internalType": "bytes32",
          "name": "node",
          "type": "bytes32"
        }
      ],
      "name": "owner",
      "outputs": [
        {
          "internalType": "address",
          "name": "",
          "type": "address"
        }
      ],
      "stateMutability": "view",
      "type": "function"
    },
    {
      "inputs": [
        {
          "internalType": "bytes32",
          "name": "node",
          "type": "bytes32"
        }
      ],
      "name": "recordExists",
      "outputs": [
        {
          "internalType": "bool",
          "name": "",
          "type": "bool"
        }
      ],
      "stateMutability": "view",
      "type": "function"
    },
    {
      "inputs": [
        {
          "internalType": "bytes32",
          "name": "node",
          "type": "bytes32"
        }
      ],
      "name": "resolver",
      "outputs": [
        {
          "internalType": "address",
          "name": "",
          "type": "address"
        }
      ],
      "stateMutability": "view",
      "type": "function"
    },
    {
      "inputs": [
        {
          "internalType": "address",
          "name": "operator",
          "type": "address"
        },
        {
          "internalType": "bool",
          "name": "approved",
          "type": "bool"
        }
      ],
      "name": "setApprovalForAll",
      "outputs": [],
      "stateMutability": "nonpayable",
      "type": "function"
    },
    {
      "inputs": [
        {
          "internalType": "bytes32",
          "name": "node",
          "type": "bytes32"
        },
        {
          "internalType": "address",
          "name": "owner",
          "type": "address"
        }
      ],
      "name": "setOwner",
      "outputs": [],
      "stateMutability": "nonpayable",
      "type": "function"
    },
    {
      "inputs": [
        {
          "internalType": "bytes32",
          "name": "node",
          "type": "bytes32"
        },
        {
          "internalType": "address",
          "name": "owner",
          "type": "address"
        },
        {
          "internalType": "address",
          "name": "resolver",
          "type": "address"
        },
        {
          "internalType": "uint64",
          "name": "ttl",
          "type": "uint64"
        }
      ],
      "name": "setRecord",
      "outputs": [],
      "stateMutability": "nonpayable",
      "type": "function"
    },
    {
      "inputs": [
        {
          "internalType": "bytes32",
          "name": "node",
          "type": "bytes32"
        },
        {
          "internalType": "address",
          "name": "resolver",
          "type": "address"
        }
      ],
      "name": "setResolver",
      "outputs": [],
      "stateMutability": "nonpayable",
      "type": "function"
    },
    {
      "inputs": [
        {
          "internalType": "bytes32",
          "name": "node",
          "type": "bytes32"
        },
        {
          "internalType": "bytes32",
          "name": "label",
          "type": "bytes32"
        },
        {
          "internalType": "address",
          "name": "owner",
          "type": "address"
        }
      ],
      "name": "setSubnodeOwner",
      "outputs": [
        {
          "internalType": "bytes32",
          "name": "",
          "type": "bytes32"
        }
      ],
      "stateMutability": "nonpayable",
      "type": "function"
    },
    {
      "inputs": [
        {
          "internalType": "bytes32",
          "name": "node",
          "type": "bytes32"
        },
        {
          "internalType": "bytes32",
          "name": "label",
          "type": "bytes32"
        },
        {
          "internalType": "address",
          "name": "owner",
          "type": "address"
        },
        {
          "internalType": "address",
          "name": "resolver",
          "type": "address"
        },
        {
          "internalType": "uint64",
          "name": "ttl",
          "type": "uint64"
        }
      ],
      "name": "setSubnodeRecord",
      "outputs": [],
      "stateMutability": "nonpayable",
      "type": "function"
    },
    {
      "inputs": [
        {
          "internalType": "bytes32",
          "name": "node",
          "type": "bytes32"
        },
        {
          "internalType": "uint64",
          "name": "ttl",
          "type": "uint64"
        }
      ],
      "name": "setTTL",
      "outputs": [],
      "stateMutability": "nonpayable",
      "type": "function"
    },
    {
      "inputs": [
        {
          "internalType": "bytes32",
          "name": "node",
          "type": "bytes32"
        }
      ],
      "name": "ttl",
      "outputs": [
        {
          "internalType": "uint64",
          "name": "",
          "type": "uint64"
        }
      ],
      "stateMutability": "view",
      "type": "function"
    }
  ],
  "bytecode": "0x608060405234801561001057600080fd5b50d3801561001d57600080fd5b50d2801561002a57600080fd5b5060008080526020527fad3228b676f7d3cd4284a5443f17f1962b36e491b30a40b2405849e597ba5fb580546001600160a01b031916331790556108b8806100736000396000f3fe608060405234801561001057600080fd5b50d3801561001d57600080fd5b50d2801561002a57600080fd5b50600436106100ce5760003560e01c80635b0fc9c31161008b5780635b0fc9c3146101775780635ef2c7f01461018a578063a22cb4651461019d578063cf408823146101b0578063e985e9c5146101c3578063f79fe538146101e3576100ce565b80630178b8bf146100d357806302571be3146100fc57806306ab59231461010f57806314ab90381461012f57806316a25cbd146101445780631896f70a14610164575b600080fd5b6100e66100e1366004610705565b6101f6565b6040516100f39190610845565b60405180910390f35b6100e661010a366004610705565b610217565b61012261011d36600461078b565b610247565b6040516100f39190610864565b61014261013d366004610815565b6102c0565b005b610157610152366004610705565b610336565b6040516100f3919061086d565b61014261017236600461071d565b61035c565b61014261018536600461071d565b6103c5565b6101426101983660046107bf565b61040b565b6101426101ab3660046106cb565b61042d565b6101426101be36600461073f565b61049c565b6101d66101d1366004610699565b6104b7565b6040516100f39190610859565b6101d66101f1366004610705565b6104e5565b6000818152602081905260409020600101546001600160a01b03165b919050565b6000818152602081905260408120546001600160a01b031630811415610241576000915050610212565b92915050565b600080848460405160200161025d929190610837565b60405160208183030381529060405280519060200120905061027f8184610502565b83857fce0457fe73731f824cc272376169235128c118b49d344817417c6d108d155e82856040516102b09190610845565b60405180910390a3949350505050565b817f1d4f9bbfc9cab89d66e1a1562f2233ccbf1308cb4f63de2ead5787adddb8fa68826040516102f0919061086d565b60405180910390a2600091825260208290526040909120600101805467ffffffffffffffff909216600160a01b0267ffffffffffffffff60a01b19909216919091179055565b600090815260208190526040902060010154600160a01b900467ffffffffffffffff1690565b817f335721b01866dc23fbee8b6b2c7b1e14d6f05c28cd35a2c934239f94095602a08260405161038c9190610845565b60405180910390a260009182526020829052604090912060010180546001600160a01b0319166001600160a01b03909216919091179055565b6103cf8282610502565b817fd4735d920b0f87494915f556dd9b54c8f309026070caea5c737245152564d266826040516103ff9190610845565b60405180910390a25050565b6000610418868686610247565b9050610425818484610530565b505050505050565b3360008181526001602090815260408083206001600160a01b038716808552925291829020805460ff191685151517905590519091907f17307eab39ab6107e8899845ad3d59bd9653f200f220920489ca2b5937696c3190610490908590610859565b60405180910390a35050565b6104a684846103c5565b6104b1848383610530565b50505050565b6001600160a01b03918216600090815260016020908152604080832093909416825291909152205460ff1690565b6000908152602081905260409020546001600160a01b0316151590565b60009182526020829052604090912080546001600160a01b0319166001600160a01b03909216919091179055565b6000838152602081905260409020600101546001600160a01b038381169116146105b9576000838152602081905260409081902060010180546001600160a01b0319166001600160a01b0385161790555183907f335721b01866dc23fbee8b6b2c7b1e14d6f05c28cd35a2c934239f94095602a0906105b0908590610845565b60405180910390a25b60008381526020819052604090206001015467ffffffffffffffff828116600160a01b90920416146106555760008381526020819052604090819020600101805467ffffffffffffffff60a01b1916600160a01b67ffffffffffffffff8516021790555183907f1d4f9bbfc9cab89d66e1a1562f2233ccbf1308cb4f63de2ead5787adddb8fa689061064c90849061086d565b60405180910390a25b505050565b600081356001600160a81b0381168114610672578182fd5b6001600160a01b031692915050565b803567ffffffffffffffff8116811461021257600080fd5b600080604083850312156106ab578182fd5b6106b48361065a565b91506106c26020840161065a565b90509250929050565b600080604083850312156106dd578182fd5b6106e68361065a565b9150602083013580151581146106fa578182fd5b809150509250929050565b600060208284031215610716578081fd5b5035919050565b6000806040838503121561072f578182fd5b823591506106c26020840161065a565b60008060008060808587031215610754578182fd5b843593506107646020860161065a565b92506107726040860161065a565b915061078060608601610681565b905092959194509250565b60008060006060848603121561079f578283fd5b83359250602084013591506107b66040850161065a565b90509250925092565b600080600080600060a086880312156107d6578081fd5b85359450602086013593506107ed6040870161065a565b92506107fb6060870161065a565b915061080960808701610681565b90509295509295909350565b60008060408385031215610827578182fd5b823591506106c260208401610681565b918252602082015260400190565b6001600160a01b0391909116815260200190565b901515815260200190565b90815260200190565b67ffffffffffffffff9190911681526020019056fea264697066735822122080472e9b753462ffb33234c01ec528270d3717d106868d7e3f5a50a1f7e5c12964736f6c63430008000033",
  "source": "// SPDX-License-Identifier: MIT\r\n/**\r\n *Submitted for verification at Etherscan.io on 2020-01-30\r\n*/\r\n\r\n// File: @ensdomains/ens/contracts/ENS.sol\r\n\r\npragma solidity >=0.8.0;\r\n\r\ninterface ENS {\r\n\r\n    // Logged when the owner of a node assigns a new owner to a subnode.\r\n    event NewOwner(bytes32 indexed node, bytes32 indexed label, address owner);\r\n\r\n    // Logged when the owner of a node transfers ownership to a new account.\r\n    event Transfer(bytes32 indexed node, address owner);\r\n\r\n    // Logged when the resolver for a node changes.\r\n    event NewResolver(bytes32 indexed node, address resolver);\r\n\r\n    // Logged when the TTL of a node changes\r\n    event NewTTL(bytes32 indexed node, uint64 ttl);\r\n\r\n    // Logged when an operator is added or removed.\r\n    event ApprovalForAll(address indexed owner, address indexed operator, bool approved);\r\n\r\n    function setRecord(bytes32 node, address owner, address resolver, uint64 ttl) external;\r\n    function setSubnodeRecord(bytes32 node, bytes32 label, address owner, address resolver, uint64 ttl) external;\r\n    function setSubnodeOwner(bytes32 node, bytes32 label, address owner) external returns(bytes32);\r\n    function setResolver(bytes32 node, address resolver) external;\r\n    function setOwner(bytes32 node, address owner) external;\r\n    function setTTL(bytes32 node, uint64 ttl) external;\r\n    function setApprovalForAll(address operator, bool approved) external;\r\n    function owner(bytes32 node) external view returns (address);\r\n    function resolver(bytes32 node) external view returns (address);\r\n    function ttl(bytes32 node) external view returns (uint64);\r\n    function recordExists(bytes32 node) external view returns (bool);\r\n    function isApprovedForAll(address owner, address operator) external view returns (bool);\r\n}\r\n\r\n// File: @ensdomains/ens/contracts/ENSRegistry.sol\r\n\r\n// pragma solidity ^0.5.0;\r\n\r\n\r\n/**\r\n * The ENS registry contract.\r\n */\r\ncontract ENSRegistry is ENS {\r\n\r\n    struct Record {\r\n        address owner;\r\n        address resolver;\r\n        uint64 ttl;\r\n    }\r\n\r\n    mapping (bytes32 => Record) records;\r\n    mapping (address => mapping(address => bool)) operators;\r\n\r\n    // Permits modifications only by the owner of the specified node.\r\n    modifier authorised(bytes32 node) {\r\n        address owner = records[node].owner;\r\n        require(owner == msg.sender || operators[owner][msg.sender]);\r\n        _;\r\n    }\r\n\r\n    /**\r\n     * @dev Constructs a new ENS registrar.\r\n     */\r\n    constructor() {\r\n        records[0x0].owner = msg.sender;\r\n    }\r\n\r\n    /**\r\n     * @dev Sets the record for a node.\r\n     * @param node The node to update.\r\n     * @param owner The address of the new owner.\r\n     * @param resolver The address of the resolver.\r\n     * @param ttl The TTL in seconds.\r\n     */\r\n    function setRecord(bytes32 node, address owner, address resolver, uint64 ttl) external override{\r\n        setOwner(node, owner);\r\n        _setResolverAndTTL(node, resolver, ttl);\r\n    }\r\n\r\n    /**\r\n     * @dev Sets the record for a subnode.\r\n     * @param node The parent node.\r\n     * @param label The hash of the label specifying the subnode.\r\n     * @param owner The address of the new owner.\r\n     * @param resolver The address of the resolver.\r\n     * @param ttl The TTL in seconds.\r\n     */\r\n    function setSubnodeRecord(bytes32 node, bytes32 label, address owner, address resolver, uint64 ttl) external override{\r\n        bytes32 subnode = setSubnodeOwner(node, label, owner);\r\n        _setResolverAndTTL(subnode, resolver, ttl);\r\n    }\r\n\r\n    /**\r\n     * @dev Transfers ownership of a node to a new address. May only be called by the current owner of the node.\r\n     * @param node The node to transfer ownership of.\r\n     * @param owner The address of the new owner.\r\n     */\r\n    function setOwner(bytes32 node, address owner) public override{\r\n        _setOwner(node, owner);\r\n        emit Transfer(node, owner);\r\n    }\r\n\r\n    /**\r\n     * @dev Transfers ownership of a subnode keccak256(node, label) to a new address. May only be called by the owner of the parent node.\r\n     * @param node The parent node.\r\n     * @param label The hash of the label specifying the subnode.\r\n     * @param owner The address of the new owner.\r\n     */\r\n    function setSubnodeOwner(bytes32 node, bytes32 label, address owner) public override returns(bytes32) {\r\n        bytes32 subnode = keccak256(abi.encodePacked(node, label));\r\n        _setOwner(subnode, owner);\r\n        emit NewOwner(node, label, owner);\r\n        return subnode;\r\n    }\r\n\r\n    /**\r\n     * @dev Sets the resolver address for the specified node.\r\n     * @param node The node to update.\r\n     * @param resolver The address of the resolver.\r\n     */\r\n    function setResolver(bytes32 node, address resolver) public override{\r\n        emit NewResolver(node, resolver);\r\n        records[node].resolver = resolver;\r\n    }\r\n\r\n    /**\r\n     * @dev Sets the TTL for the specified node.\r\n     * @param node The node to update.\r\n     * @param ttl The TTL in seconds.\r\n     */\r\n    function setTTL(bytes32 node, uint64 ttl) public override{\r\n        emit NewTTL(node, ttl);\r\n        records[node].ttl = ttl;\r\n    }\r\n\r\n    /**\r\n     * @dev Enable or disable approval for a third party (\"operator\") to manage\r\n     *  all of `msg.sender`'s ENS records. Emits the ApprovalForAll event.\r\n     * @param operator Address to add to the set of authorized operators.\r\n     * @param approved True if the operator is approved, false to revoke approval.\r\n     */\r\n    function setApprovalForAll(address operator, bool approved) external override{\r\n        operators[msg.sender][operator] = approved;\r\n        emit ApprovalForAll(msg.sender, operator, approved);\r\n    }\r\n\r\n    /**\r\n     * @dev Returns the address that owns the specified node.\r\n     * @param node The specified node.\r\n     * @return address of the owner.\r\n     */\r\n    function owner(bytes32 node) public view virtual override returns (address) {\r\n        address addr = records[node].owner;\r\n        if (addr == address(this)) {\r\n            return address(0x0);\r\n        }\r\n\r\n        return addr;\r\n    }\r\n\r\n    /**\r\n     * @dev Returns the address of the resolver for the specified node.\r\n     * @param node The specified node.\r\n     * @return address of the resolver.\r\n     */\r\n    function resolver(bytes32 node) public view virtual override returns (address) {\r\n        return records[node].resolver;\r\n    }\r\n\r\n    /**\r\n     * @dev Returns the TTL of a node, and any records associated with it.\r\n     * @param node The specified node.\r\n     * @return ttl of the node.\r\n     */\r\n    function ttl(bytes32 node) public view virtual override returns (uint64) {\r\n        return records[node].ttl;\r\n    }\r\n\r\n    /**\r\n     * @dev Returns whether a record has been imported to the registry.\r\n     * @param node The specified node.\r\n     * @return Bool if record exists\r\n     */\r\n    function recordExists(bytes32 node) public view override returns (bool) {\r\n        return records[node].owner != address(0x0);\r\n    }\r\n\r\n    /**\r\n     * @dev Query if an address is an authorized operator for another address.\r\n     * @param owner The address that owns the records.\r\n     * @param operator The address that acts on behalf of the owner.\r\n     * @return True if `operator` is an approved operator for `owner`, false otherwise.\r\n     */\r\n    function isApprovedForAll(address owner, address operator) external view override returns (bool) {\r\n        return operators[owner][operator];\r\n    }\r\n\r\n    function _setOwner(bytes32 node, address owner) internal virtual{\r\n        records[node].owner = owner;\r\n    }\r\n\r\n    function _setResolverAndTTL(bytes32 node, address resolver, uint64 ttl) internal {\r\n        if(resolver != records[node].resolver) {\r\n            records[node].resolver = resolver;\r\n            emit NewResolver(node, resolver);\r\n        }\r\n\r\n        if(ttl != records[node].ttl) {\r\n            records[node].ttl = ttl;\r\n            emit NewTTL(node, ttl);\r\n        }\r\n    }\r\n}\r\n\r\n// File: @ensdomains/ens/contracts/ENSRegistryWithFallback.sol\r\n\r\n// pragma solidity ^0.5.0;\r\n\r\n\r\n\r\n/**\r\n * The ENS registry contract.\r\n */\r\ncontract ENSRegistryWithFallback is ENSRegistry {\r\n\r\n    ENS public old;\r\n\r\n    /**\r\n     * @dev Constructs a new ENS registrar.\r\n     */\r\n    constructor(ENS _old) ENSRegistry() {\r\n        old = _old;\r\n    }\r\n\r\n    /**\r\n     * @dev Returns the address of the resolver for the specified node.\r\n     * @param node The specified node.\r\n     * @return address of the resolver.\r\n     */\r\n    function resolver(bytes32 node) public view override returns (address) {\r\n        if (!recordExists(node)) {\r\n            return old.resolver(node);\r\n        }\r\n\r\n        return super.resolver(node);\r\n    }\r\n\r\n    /**\r\n     * @dev Returns the address that owns the specified node.\r\n     * @param node The specified node.\r\n     * @return address of the owner.\r\n     */\r\n    function owner(bytes32 node) public view override returns (address) {\r\n        if (!recordExists(node)) {\r\n            return old.owner(node);\r\n        }\r\n\r\n        return super.owner(node);\r\n    }\r\n\r\n    /**\r\n     * @dev Returns the TTL of a node, and any records associated with it.\r\n     * @param node The specified node.\r\n     * @return ttl of the node.\r\n     */\r\n    function ttl(bytes32 node) public view override returns (uint64) {\r\n        if (!recordExists(node)) {\r\n            return old.ttl(node);\r\n        }\r\n\r\n        return super.ttl(node);\r\n    }\r\n\r\n    function _setOwner(bytes32 node, address owner) internal override{\r\n        address addr = owner;\r\n        if (addr == address(0x0)) {\r\n            addr = address(this);\r\n        }\r\n\r\n        super._setOwner(node, addr);\r\n    }\r\n}",
  "sourcePath": "D:/NodejsSpace/tronbox-js-tornado/contracts/ENSRegistryWithFallback.sol",
  "compiler": {
    "name": "solc",
    "version": "0.8.0+commit.7c2e6412.Emscripten.clang"
  },
  "schemaVersion": "2.0.1",
  "updatedAt": "2023-07-04T11:34:56.080Z"
}