{
  "contractName": "ENSRegistryWithFallback",
  "abi": [
    {
      "inputs": [
        {
          "internalType": "contract ENS",
          "name": "_old",
          "type": "address"
        }
      ],
      "stateMutability": "nonpayable",
      "type": "constructor"
    },
    {
      "anonymous": false,
      "inputs": [
        {
          "indexed": true,
          "internalType": "address",
          "name": "owner",
          "type": "address"
        },
        {
          "indexed": true,
          "internalType": "address",
          "name": "operator",
          "type": "address"
        },
        {
          "indexed": false,
          "internalType": "bool",
          "name": "approved",
          "type": "bool"
        }
      ],
      "name": "ApprovalForAll",
      "type": "event"
    },
    {
      "anonymous": false,
      "inputs": [
        {
          "indexed": true,
          "internalType": "bytes32",
          "name": "node",
          "type": "bytes32"
        },
        {
          "indexed": true,
          "internalType": "bytes32",
          "name": "label",
          "type": "bytes32"
        },
        {
          "indexed": false,
          "internalType": "address",
          "name": "owner",
          "type": "address"
        }
      ],
      "name": "NewOwner",
      "type": "event"
    },
    {
      "anonymous": false,
      "inputs": [
        {
          "indexed": true,
          "internalType": "bytes32",
          "name": "node",
          "type": "bytes32"
        },
        {
          "indexed": false,
          "internalType": "address",
          "name": "resolver",
          "type": "address"
        }
      ],
      "name": "NewResolver",
      "type": "event"
    },
    {
      "anonymous": false,
      "inputs": [
        {
          "indexed": true,
          "internalType": "bytes32",
          "name": "node",
          "type": "bytes32"
        },
        {
          "indexed": false,
          "internalType": "uint64",
          "name": "ttl",
          "type": "uint64"
        }
      ],
      "name": "NewTTL",
      "type": "event"
    },
    {
      "anonymous": false,
      "inputs": [
        {
          "indexed": true,
          "internalType": "bytes32",
          "name": "node",
          "type": "bytes32"
        },
        {
          "indexed": false,
          "internalType": "address",
          "name": "owner",
          "type": "address"
        }
      ],
      "name": "Transfer",
      "type": "event"
    },
    {
      "inputs": [
        {
          "internalType": "address",
          "name": "owner",
          "type": "address"
        },
        {
          "internalType": "address",
          "name": "operator",
          "type": "address"
        }
      ],
      "name": "isApprovedForAll",
      "outputs": [
        {
          "internalType": "bool",
          "name": "",
          "type": "bool"
        }
      ],
      "stateMutability": "view",
      "type": "function"
    },
    {
      "inputs": [],
      "name": "old",
      "outputs": [
        {
          "internalType": "contract ENS",
          "name": "",
          "type": "address"
        }
      ],
      "stateMutability": "view",
      "type": "function"
    },
    {
      "inputs": [
        {
          "internalType": "bytes32",
          "name": "node",
          "type": "bytes32"
        }
      ],
      "name": "owner",
      "outputs": [
        {
          "internalType": "address",
          "name": "",
          "type": "address"
        }
      ],
      "stateMutability": "view",
      "type": "function"
    },
    {
      "inputs": [
        {
          "internalType": "bytes32",
          "name": "node",
          "type": "bytes32"
        }
      ],
      "name": "recordExists",
      "outputs": [
        {
          "internalType": "bool",
          "name": "",
          "type": "bool"
        }
      ],
      "stateMutability": "view",
      "type": "function"
    },
    {
      "inputs": [
        {
          "internalType": "bytes32",
          "name": "node",
          "type": "bytes32"
        }
      ],
      "name": "resolver",
      "outputs": [
        {
          "internalType": "address",
          "name": "",
          "type": "address"
        }
      ],
      "stateMutability": "view",
      "type": "function"
    },
    {
      "inputs": [
        {
          "internalType": "address",
          "name": "operator",
          "type": "address"
        },
        {
          "internalType": "bool",
          "name": "approved",
          "type": "bool"
        }
      ],
      "name": "setApprovalForAll",
      "outputs": [],
      "stateMutability": "nonpayable",
      "type": "function"
    },
    {
      "inputs": [
        {
          "internalType": "bytes32",
          "name": "node",
          "type": "bytes32"
        },
        {
          "internalType": "address",
          "name": "owner",
          "type": "address"
        }
      ],
      "name": "setOwner",
      "outputs": [],
      "stateMutability": "nonpayable",
      "type": "function"
    },
    {
      "inputs": [
        {
          "internalType": "bytes32",
          "name": "node",
          "type": "bytes32"
        },
        {
          "internalType": "address",
          "name": "owner",
          "type": "address"
        },
        {
          "internalType": "address",
          "name": "resolver",
          "type": "address"
        },
        {
          "internalType": "uint64",
          "name": "ttl",
          "type": "uint64"
        }
      ],
      "name": "setRecord",
      "outputs": [],
      "stateMutability": "nonpayable",
      "type": "function"
    },
    {
      "inputs": [
        {
          "internalType": "bytes32",
          "name": "node",
          "type": "bytes32"
        },
        {
          "internalType": "address",
          "name": "resolver",
          "type": "address"
        }
      ],
      "name": "setResolver",
      "outputs": [],
      "stateMutability": "nonpayable",
      "type": "function"
    },
    {
      "inputs": [
        {
          "internalType": "bytes32",
          "name": "node",
          "type": "bytes32"
        },
        {
          "internalType": "bytes32",
          "name": "label",
          "type": "bytes32"
        },
        {
          "internalType": "address",
          "name": "owner",
          "type": "address"
        }
      ],
      "name": "setSubnodeOwner",
      "outputs": [
        {
          "internalType": "bytes32",
          "name": "",
          "type": "bytes32"
        }
      ],
      "stateMutability": "nonpayable",
      "type": "function"
    },
    {
      "inputs": [
        {
          "internalType": "bytes32",
          "name": "node",
          "type": "bytes32"
        },
        {
          "internalType": "bytes32",
          "name": "label",
          "type": "bytes32"
        },
        {
          "internalType": "address",
          "name": "owner",
          "type": "address"
        },
        {
          "internalType": "address",
          "name": "resolver",
          "type": "address"
        },
        {
          "internalType": "uint64",
          "name": "ttl",
          "type": "uint64"
        }
      ],
      "name": "setSubnodeRecord",
      "outputs": [],
      "stateMutability": "nonpayable",
      "type": "function"
    },
    {
      "inputs": [
        {
          "internalType": "bytes32",
          "name": "node",
          "type": "bytes32"
        },
        {
          "internalType": "uint64",
          "name": "ttl",
          "type": "uint64"
        }
      ],
      "name": "setTTL",
      "outputs": [],
      "stateMutability": "nonpayable",
      "type": "function"
    },
    {
      "inputs": [
        {
          "internalType": "bytes32",
          "name": "node",
          "type": "bytes32"
        }
      ],
      "name": "ttl",
      "outputs": [
        {
          "internalType": "uint64",
          "name": "",
          "type": "uint64"
        }
      ],
      "stateMutability": "view",
      "type": "function"
    }
  ],
  "bytecode": "0x608060405234801561001057600080fd5b50d3801561001d57600080fd5b50d2801561002a57600080fd5b50604051610c1c380380610c1c833981016040819052610049916100a3565b60008080526020527fad3228b676f7d3cd4284a5443f17f1962b36e491b30a40b2405849e597ba5fb58054336001600160a01b031991821617909155600280549091166001600160a01b03929092169190911790556100da565b6000602082840312156100b4578081fd5b81516001600160a81b03811681146100ca578182fd5b6001600160a01b03169392505050565b610b33806100e96000396000f3fe608060405234801561001057600080fd5b50d3801561001d57600080fd5b50d2801561002a57600080fd5b50600436106100e95760003560e01c80635b0fc9c3116100a6578063b83f866311610080578063b83f8663146101cb578063cf408823146101d3578063e985e9c5146101e6578063f79fe53814610206576100e9565b80635b0fc9c3146101925780635ef2c7f0146101a5578063a22cb465146101b8576100e9565b80630178b8bf146100ee57806302571be31461011757806306ab59231461012a57806314ab90381461014a57806316a25cbd1461015f5780631896f70a1461017f575b600080fd5b6101016100fc3660046108e0565b610219565b60405161010e9190610a92565b60405180910390f35b6101016101253660046108e0565b6102c0565b61013d610138366004610990565b610308565b60405161010e9190610ab1565b61015d610158366004610a3d565b610381565b005b61017261016d3660046108e0565b6103f7565b60405161010e9190610aba565b61015d61018d3660046108f8565b61048f565b61015d6101a03660046108f8565b6104f8565b61015d6101b33660046109d2565b61053e565b61015d6101c636600461089b565b610560565b6101016105cf565b61015d6101e1366004610931565b6105de565b6101f96101f4366004610856565b6105f9565b60405161010e9190610aa6565b6101f96102143660046108e0565b610627565b600061022482610627565b6102af57600254604051630178b8bf60e01b81526001600160a01b0390911690630178b8bf90610258908590600401610ab1565b60206040518083038186803b15801561027057600080fd5b505afa158015610284573d6000803e3d6000fd5b505050506040513d601f19601f820116820180604052508101906102a8919061082a565b90506102bb565b6102b882610644565b90505b919050565b60006102cb82610627565b6102ff576002546040516302571be360e01b81526001600160a01b03909116906302571be390610258908590600401610ab1565b6102b882610662565b600080848460405160200161031e929190610a84565b604051602081830303815290604052805190602001209050610340818461068c565b83857fce0457fe73731f824cc272376169235128c118b49d344817417c6d108d155e82856040516103719190610a92565b60405180910390a3949350505050565b817f1d4f9bbfc9cab89d66e1a1562f2233ccbf1308cb4f63de2ead5787adddb8fa68826040516103b19190610aba565b60405180910390a2600091825260208290526040909120600101805467ffffffffffffffff909216600160a01b0267ffffffffffffffff60a01b19909216919091179055565b600061040282610627565b610486576002546040516316a25cbd60e01b81526001600160a01b03909116906316a25cbd90610436908590600401610ab1565b60206040518083038186803b15801561044e57600080fd5b505afa158015610462573d6000803e3d6000fd5b505050506040513d601f19601f820116820180604052508101906102a89190610a61565b6102b8826106ad565b817f335721b01866dc23fbee8b6b2c7b1e14d6f05c28cd35a2c934239f94095602a0826040516104bf9190610a92565b60405180910390a260009182526020829052604090912060010180546001600160a01b0319166001600160a01b03909216919091179055565b610502828261068c565b817fd4735d920b0f87494915f556dd9b54c8f309026070caea5c737245152564d266826040516105329190610a92565b60405180910390a25050565b600061054b868686610308565b90506105588184846106d3565b505050505050565b3360008181526001602090815260408083206001600160a01b038716808552925291829020805460ff191685151517905590519091907f17307eab39ab6107e8899845ad3d59bd9653f200f220920489ca2b5937696c31906105c3908590610aa6565b60405180910390a35050565b6002546001600160a01b031681565b6105e884846104f8565b6105f38483836106d3565b50505050565b6001600160a01b03918216600090815260016020908152604080832093909416825291909152205460ff1690565b6000908152602081905260409020546001600160a01b0316151590565b6000908152602081905260409020600101546001600160a01b031690565b6000818152602081905260408120546001600160a01b0316308114156102b85760009150506102bb565b806001600160a01b03811661069e5750305b6106a883826107fc565b505050565b600090815260208190526040902060010154600160a01b900467ffffffffffffffff1690565b6000838152602081905260409020600101546001600160a01b0383811691161461075c576000838152602081905260409081902060010180546001600160a01b0319166001600160a01b0385161790555183907f335721b01866dc23fbee8b6b2c7b1e14d6f05c28cd35a2c934239f94095602a090610753908590610a92565b60405180910390a25b60008381526020819052604090206001015467ffffffffffffffff828116600160a01b90920416146106a85760008381526020819052604090819020600101805467ffffffffffffffff60a01b1916600160a01b67ffffffffffffffff8516021790555183907f1d4f9bbfc9cab89d66e1a1562f2233ccbf1308cb4f63de2ead5787adddb8fa68906107ef908490610aba565b60405180910390a2505050565b60009182526020829052604090912080546001600160a01b0319166001600160a01b03909216919091179055565b60006020828403121561083b578081fd5b815161084681610acf565b6001600160a01b03169392505050565b60008060408385031215610868578081fd5b823561087381610acf565b6001600160a01b03908116925060208401359061088f82610acf565b92959216935090915050565b600080604083850312156108ad578182fd5b82356108b881610acf565b6001600160a01b03169150602083013580151581146108d5578182fd5b809150509250929050565b6000602082840312156108f1578081fd5b5035919050565b6000806040838503121561090a578182fd5b82359150602083013561091c81610acf565b91946001600160a01b03909216935090915050565b60008060008060808587031215610946578182fd5b84359350602085013561095881610acf565b6001600160a01b03908116935060408601359061097482610acf565b169150606085013561098581610ae7565b939692955090935050565b6000806000606084860312156109a4578283fd5b833592506020840135915060408401356109bd81610acf565b9295919450506001600160a01b039091169150565b600080600080600060a086880312156109e9578081fd5b85359450602086013593506040860135610a0281610acf565b6001600160a01b039081169350606087013590610a1e82610acf565b1691506080860135610a2f81610ae7565b809150509295509295909350565b60008060408385031215610a4f578182fd5b8235915060208301356108d581610ae7565b600060208284031215610a72578081fd5b8151610a7d81610ae7565b9392505050565b918252602082015260400190565b6001600160a01b0391909116815260200190565b901515815260200190565b90815260200190565b67ffffffffffffffff91909116815260200190565b6001600160a81b0381168114610ae457600080fd5b50565b67ffffffffffffffff81168114610ae457600080fdfea2646970667358221220d600d9f07902c0ccd5bef8ce263bfedbe842a9922b75e0928d1ea6a53e77f79964736f6c63430008000033",
  "source": "// SPDX-License-Identifier: MIT\r\n/**\r\n *Submitted for verification at Etherscan.io on 2020-01-30\r\n*/\r\n\r\n// File: @ensdomains/ens/contracts/ENS.sol\r\n\r\npragma solidity >=0.8.0;\r\n\r\ninterface ENS {\r\n\r\n    // Logged when the owner of a node assigns a new owner to a subnode.\r\n    event NewOwner(bytes32 indexed node, bytes32 indexed label, address owner);\r\n\r\n    // Logged when the owner of a node transfers ownership to a new account.\r\n    event Transfer(bytes32 indexed node, address owner);\r\n\r\n    // Logged when the resolver for a node changes.\r\n    event NewResolver(bytes32 indexed node, address resolver);\r\n\r\n    // Logged when the TTL of a node changes\r\n    event NewTTL(bytes32 indexed node, uint64 ttl);\r\n\r\n    // Logged when an operator is added or removed.\r\n    event ApprovalForAll(address indexed owner, address indexed operator, bool approved);\r\n\r\n    function setRecord(bytes32 node, address owner, address resolver, uint64 ttl) external;\r\n    function setSubnodeRecord(bytes32 node, bytes32 label, address owner, address resolver, uint64 ttl) external;\r\n    function setSubnodeOwner(bytes32 node, bytes32 label, address owner) external returns(bytes32);\r\n    function setResolver(bytes32 node, address resolver) external;\r\n    function setOwner(bytes32 node, address owner) external;\r\n    function setTTL(bytes32 node, uint64 ttl) external;\r\n    function setApprovalForAll(address operator, bool approved) external;\r\n    function owner(bytes32 node) external view returns (address);\r\n    function resolver(bytes32 node) external view returns (address);\r\n    function ttl(bytes32 node) external view returns (uint64);\r\n    function recordExists(bytes32 node) external view returns (bool);\r\n    function isApprovedForAll(address owner, address operator) external view returns (bool);\r\n}\r\n\r\n// File: @ensdomains/ens/contracts/ENSRegistry.sol\r\n\r\n// pragma solidity ^0.5.0;\r\n\r\n\r\n/**\r\n * The ENS registry contract.\r\n */\r\ncontract ENSRegistry is ENS {\r\n\r\n    struct Record {\r\n        address owner;\r\n        address resolver;\r\n        uint64 ttl;\r\n    }\r\n\r\n    mapping (bytes32 => Record) records;\r\n    mapping (address => mapping(address => bool)) operators;\r\n\r\n    // Permits modifications only by the owner of the specified node.\r\n    modifier authorised(bytes32 node) {\r\n        address owner = records[node].owner;\r\n        require(owner == msg.sender || operators[owner][msg.sender]);\r\n        _;\r\n    }\r\n\r\n    /**\r\n     * @dev Constructs a new ENS registrar.\r\n     */\r\n    constructor() {\r\n        records[0x0].owner = msg.sender;\r\n    }\r\n\r\n    /**\r\n     * @dev Sets the record for a node.\r\n     * @param node The node to update.\r\n     * @param owner The address of the new owner.\r\n     * @param resolver The address of the resolver.\r\n     * @param ttl The TTL in seconds.\r\n     */\r\n    function setRecord(bytes32 node, address owner, address resolver, uint64 ttl) external override{\r\n        setOwner(node, owner);\r\n        _setResolverAndTTL(node, resolver, ttl);\r\n    }\r\n\r\n    /**\r\n     * @dev Sets the record for a subnode.\r\n     * @param node The parent node.\r\n     * @param label The hash of the label specifying the subnode.\r\n     * @param owner The address of the new owner.\r\n     * @param resolver The address of the resolver.\r\n     * @param ttl The TTL in seconds.\r\n     */\r\n    function setSubnodeRecord(bytes32 node, bytes32 label, address owner, address resolver, uint64 ttl) external override{\r\n        bytes32 subnode = setSubnodeOwner(node, label, owner);\r\n        _setResolverAndTTL(subnode, resolver, ttl);\r\n    }\r\n\r\n    /**\r\n     * @dev Transfers ownership of a node to a new address. May only be called by the current owner of the node.\r\n     * @param node The node to transfer ownership of.\r\n     * @param owner The address of the new owner.\r\n     */\r\n    function setOwner(bytes32 node, address owner) public override{\r\n        _setOwner(node, owner);\r\n        emit Transfer(node, owner);\r\n    }\r\n\r\n    /**\r\n     * @dev Transfers ownership of a subnode keccak256(node, label) to a new address. May only be called by the owner of the parent node.\r\n     * @param node The parent node.\r\n     * @param label The hash of the label specifying the subnode.\r\n     * @param owner The address of the new owner.\r\n     */\r\n    function setSubnodeOwner(bytes32 node, bytes32 label, address owner) public override returns(bytes32) {\r\n        bytes32 subnode = keccak256(abi.encodePacked(node, label));\r\n        _setOwner(subnode, owner);\r\n        emit NewOwner(node, label, owner);\r\n        return subnode;\r\n    }\r\n\r\n    /**\r\n     * @dev Sets the resolver address for the specified node.\r\n     * @param node The node to update.\r\n     * @param resolver The address of the resolver.\r\n     */\r\n    function setResolver(bytes32 node, address resolver) public override{\r\n        emit NewResolver(node, resolver);\r\n        records[node].resolver = resolver;\r\n    }\r\n\r\n    /**\r\n     * @dev Sets the TTL for the specified node.\r\n     * @param node The node to update.\r\n     * @param ttl The TTL in seconds.\r\n     */\r\n    function setTTL(bytes32 node, uint64 ttl) public override{\r\n        emit NewTTL(node, ttl);\r\n        records[node].ttl = ttl;\r\n    }\r\n\r\n    /**\r\n     * @dev Enable or disable approval for a third party (\"operator\") to manage\r\n     *  all of `msg.sender`'s ENS records. Emits the ApprovalForAll event.\r\n     * @param operator Address to add to the set of authorized operators.\r\n     * @param approved True if the operator is approved, false to revoke approval.\r\n     */\r\n    function setApprovalForAll(address operator, bool approved) external override{\r\n        operators[msg.sender][operator] = approved;\r\n        emit ApprovalForAll(msg.sender, operator, approved);\r\n    }\r\n\r\n    /**\r\n     * @dev Returns the address that owns the specified node.\r\n     * @param node The specified node.\r\n     * @return address of the owner.\r\n     */\r\n    function owner(bytes32 node) public view virtual override returns (address) {\r\n        address addr = records[node].owner;\r\n        if (addr == address(this)) {\r\n            return address(0x0);\r\n        }\r\n\r\n        return addr;\r\n    }\r\n\r\n    /**\r\n     * @dev Returns the address of the resolver for the specified node.\r\n     * @param node The specified node.\r\n     * @return address of the resolver.\r\n     */\r\n    function resolver(bytes32 node) public view virtual override returns (address) {\r\n        return records[node].resolver;\r\n    }\r\n\r\n    /**\r\n     * @dev Returns the TTL of a node, and any records associated with it.\r\n     * @param node The specified node.\r\n     * @return ttl of the node.\r\n     */\r\n    function ttl(bytes32 node) public view virtual override returns (uint64) {\r\n        return records[node].ttl;\r\n    }\r\n\r\n    /**\r\n     * @dev Returns whether a record has been imported to the registry.\r\n     * @param node The specified node.\r\n     * @return Bool if record exists\r\n     */\r\n    function recordExists(bytes32 node) public view override returns (bool) {\r\n        return records[node].owner != address(0x0);\r\n    }\r\n\r\n    /**\r\n     * @dev Query if an address is an authorized operator for another address.\r\n     * @param owner The address that owns the records.\r\n     * @param operator The address that acts on behalf of the owner.\r\n     * @return True if `operator` is an approved operator for `owner`, false otherwise.\r\n     */\r\n    function isApprovedForAll(address owner, address operator) external view override returns (bool) {\r\n        return operators[owner][operator];\r\n    }\r\n\r\n    function _setOwner(bytes32 node, address owner) internal virtual{\r\n        records[node].owner = owner;\r\n    }\r\n\r\n    function _setResolverAndTTL(bytes32 node, address resolver, uint64 ttl) internal {\r\n        if(resolver != records[node].resolver) {\r\n            records[node].resolver = resolver;\r\n            emit NewResolver(node, resolver);\r\n        }\r\n\r\n        if(ttl != records[node].ttl) {\r\n            records[node].ttl = ttl;\r\n            emit NewTTL(node, ttl);\r\n        }\r\n    }\r\n}\r\n\r\n// File: @ensdomains/ens/contracts/ENSRegistryWithFallback.sol\r\n\r\n// pragma solidity ^0.5.0;\r\n\r\n\r\n\r\n/**\r\n * The ENS registry contract.\r\n */\r\ncontract ENSRegistryWithFallback is ENSRegistry {\r\n\r\n    ENS public old;\r\n\r\n    /**\r\n     * @dev Constructs a new ENS registrar.\r\n     */\r\n    constructor(ENS _old) ENSRegistry() {\r\n        old = _old;\r\n    }\r\n\r\n    /**\r\n     * @dev Returns the address of the resolver for the specified node.\r\n     * @param node The specified node.\r\n     * @return address of the resolver.\r\n     */\r\n    function resolver(bytes32 node) public view override returns (address) {\r\n        if (!recordExists(node)) {\r\n            return old.resolver(node);\r\n        }\r\n\r\n        return super.resolver(node);\r\n    }\r\n\r\n    /**\r\n     * @dev Returns the address that owns the specified node.\r\n     * @param node The specified node.\r\n     * @return address of the owner.\r\n     */\r\n    function owner(bytes32 node) public view override returns (address) {\r\n        if (!recordExists(node)) {\r\n            return old.owner(node);\r\n        }\r\n\r\n        return super.owner(node);\r\n    }\r\n\r\n    /**\r\n     * @dev Returns the TTL of a node, and any records associated with it.\r\n     * @param node The specified node.\r\n     * @return ttl of the node.\r\n     */\r\n    function ttl(bytes32 node) public view override returns (uint64) {\r\n        if (!recordExists(node)) {\r\n            return old.ttl(node);\r\n        }\r\n\r\n        return super.ttl(node);\r\n    }\r\n\r\n    function _setOwner(bytes32 node, address owner) internal override{\r\n        address addr = owner;\r\n        if (addr == address(0x0)) {\r\n            addr = address(this);\r\n        }\r\n\r\n        super._setOwner(node, addr);\r\n    }\r\n}",
  "sourcePath": "D:/NodejsSpace/tronbox-js-tornado/contracts/ENSRegistryWithFallback.sol",
  "compiler": {
    "name": "solc",
    "version": "0.8.0+commit.7c2e6412.Emscripten.clang"
  },
  "schemaVersion": "2.0.1",
  "updatedAt": "2023-07-04T11:34:56.085Z"
}