{
  "contractName": "TornadoCash_erc20",
  "abi": [
    {
      "inputs": [
        {
          "internalType": "address",
          "name": "_verifier",
          "type": "address"
        },
        {
          "internalType": "uint256",
          "name": "_denomination",
          "type": "uint256"
        },
        {
          "internalType": "uint32",
          "name": "_merkleTreeHeight",
          "type": "uint32"
        },
        {
          "internalType": "address",
          "name": "_operator",
          "type": "address"
        },
        {
          "internalType": "address",
          "name": "_token",
          "type": "address"
        },
        {
          "internalType": "address",
          "name": "_hasher",
          "type": "address"
        }
      ],
      "stateMutability": "nonpayable",
      "type": "constructor"
    },
    {
      "anonymous": false,
      "inputs": [
        {
          "indexed": true,
          "internalType": "bytes32",
          "name": "commitment",
          "type": "bytes32"
        },
        {
          "indexed": false,
          "internalType": "uint32",
          "name": "leafIndex",
          "type": "uint32"
        },
        {
          "indexed": false,
          "internalType": "uint256",
          "name": "timestamp",
          "type": "uint256"
        }
      ],
      "name": "Deposit",
      "type": "event"
    },
    {
      "anonymous": false,
      "inputs": [
        {
          "indexed": false,
          "internalType": "address",
          "name": "to",
          "type": "address"
        },
        {
          "indexed": false,
          "internalType": "bytes32",
          "name": "nullifierHash",
          "type": "bytes32"
        },
        {
          "indexed": true,
          "internalType": "address",
          "name": "relayer",
          "type": "address"
        },
        {
          "indexed": false,
          "internalType": "uint256",
          "name": "fee",
          "type": "uint256"
        }
      ],
      "name": "Withdrawal",
      "type": "event"
    },
    {
      "inputs": [],
      "name": "FIELD_SIZE",
      "outputs": [
        {
          "internalType": "uint256",
          "name": "",
          "type": "uint256"
        }
      ],
      "stateMutability": "view",
      "type": "function"
    },
    {
      "inputs": [],
      "name": "ROOT_HISTORY_SIZE",
      "outputs": [
        {
          "internalType": "uint32",
          "name": "",
          "type": "uint32"
        }
      ],
      "stateMutability": "view",
      "type": "function"
    },
    {
      "inputs": [],
      "name": "ZERO_VALUE",
      "outputs": [
        {
          "internalType": "uint256",
          "name": "",
          "type": "uint256"
        }
      ],
      "stateMutability": "view",
      "type": "function"
    },
    {
      "inputs": [
        {
          "internalType": "address",
          "name": "_newOperator",
          "type": "address"
        }
      ],
      "name": "changeOperator",
      "outputs": [],
      "stateMutability": "nonpayable",
      "type": "function"
    },
    {
      "inputs": [
        {
          "internalType": "bytes32",
          "name": "",
          "type": "bytes32"
        }
      ],
      "name": "commitments",
      "outputs": [
        {
          "internalType": "bool",
          "name": "",
          "type": "bool"
        }
      ],
      "stateMutability": "view",
      "type": "function"
    },
    {
      "inputs": [],
      "name": "currentRootIndex",
      "outputs": [
        {
          "internalType": "uint32",
          "name": "",
          "type": "uint32"
        }
      ],
      "stateMutability": "view",
      "type": "function"
    },
    {
      "inputs": [],
      "name": "denomination",
      "outputs": [
        {
          "internalType": "uint256",
          "name": "",
          "type": "uint256"
        }
      ],
      "stateMutability": "view",
      "type": "function"
    },
    {
      "inputs": [
        {
          "internalType": "bytes32",
          "name": "_commitment",
          "type": "bytes32"
        }
      ],
      "name": "deposit",
      "outputs": [],
      "stateMutability": "payable",
      "type": "function"
    },
    {
      "inputs": [
        {
          "internalType": "uint256",
          "name": "",
          "type": "uint256"
        }
      ],
      "name": "filledSubtrees",
      "outputs": [
        {
          "internalType": "bytes32",
          "name": "",
          "type": "bytes32"
        }
      ],
      "stateMutability": "view",
      "type": "function"
    },
    {
      "inputs": [],
      "name": "getLastRoot",
      "outputs": [
        {
          "internalType": "bytes32",
          "name": "",
          "type": "bytes32"
        }
      ],
      "stateMutability": "view",
      "type": "function"
    },
    {
      "inputs": [
        {
          "internalType": "bytes32",
          "name": "_left",
          "type": "bytes32"
        },
        {
          "internalType": "bytes32",
          "name": "_right",
          "type": "bytes32"
        }
      ],
      "name": "hashLeftRight",
      "outputs": [
        {
          "internalType": "bytes32",
          "name": "",
          "type": "bytes32"
        }
      ],
      "stateMutability": "view",
      "type": "function"
    },
    {
      "inputs": [
        {
          "internalType": "bytes32",
          "name": "_root",
          "type": "bytes32"
        }
      ],
      "name": "isKnownRoot",
      "outputs": [
        {
          "internalType": "bool",
          "name": "",
          "type": "bool"
        }
      ],
      "stateMutability": "view",
      "type": "function"
    },
    {
      "inputs": [
        {
          "internalType": "bytes32",
          "name": "_nullifierHash",
          "type": "bytes32"
        }
      ],
      "name": "isSpent",
      "outputs": [
        {
          "internalType": "bool",
          "name": "",
          "type": "bool"
        }
      ],
      "stateMutability": "view",
      "type": "function"
    },
    {
      "inputs": [
        {
          "internalType": "bytes32[]",
          "name": "_nullifierHashes",
          "type": "bytes32[]"
        }
      ],
      "name": "isSpentArray",
      "outputs": [
        {
          "internalType": "bool[]",
          "name": "spent",
          "type": "bool[]"
        }
      ],
      "stateMutability": "view",
      "type": "function"
    },
    {
      "inputs": [],
      "name": "levels",
      "outputs": [
        {
          "internalType": "uint32",
          "name": "",
          "type": "uint32"
        }
      ],
      "stateMutability": "view",
      "type": "function"
    },
    {
      "inputs": [],
      "name": "nextIndex",
      "outputs": [
        {
          "internalType": "uint32",
          "name": "",
          "type": "uint32"
        }
      ],
      "stateMutability": "view",
      "type": "function"
    },
    {
      "inputs": [
        {
          "internalType": "bytes32",
          "name": "",
          "type": "bytes32"
        }
      ],
      "name": "nullifierHashes",
      "outputs": [
        {
          "internalType": "bool",
          "name": "",
          "type": "bool"
        }
      ],
      "stateMutability": "view",
      "type": "function"
    },
    {
      "inputs": [],
      "name": "operator",
      "outputs": [
        {
          "internalType": "address",
          "name": "",
          "type": "address"
        }
      ],
      "stateMutability": "view",
      "type": "function"
    },
    {
      "inputs": [
        {
          "internalType": "uint256",
          "name": "",
          "type": "uint256"
        }
      ],
      "name": "roots",
      "outputs": [
        {
          "internalType": "bytes32",
          "name": "",
          "type": "bytes32"
        }
      ],
      "stateMutability": "view",
      "type": "function"
    },
    {
      "inputs": [],
      "name": "token",
      "outputs": [
        {
          "internalType": "address",
          "name": "",
          "type": "address"
        }
      ],
      "stateMutability": "view",
      "type": "function"
    },
    {
      "inputs": [
        {
          "internalType": "address",
          "name": "_newVerifier",
          "type": "address"
        }
      ],
      "name": "updateVerifier",
      "outputs": [],
      "stateMutability": "nonpayable",
      "type": "function"
    },
    {
      "inputs": [],
      "name": "verifier",
      "outputs": [
        {
          "internalType": "contract IVerifier",
          "name": "",
          "type": "address"
        }
      ],
      "stateMutability": "view",
      "type": "function"
    },
    {
      "inputs": [
        {
          "internalType": "bytes",
          "name": "_proof",
          "type": "bytes"
        },
        {
          "internalType": "bytes32",
          "name": "_root",
          "type": "bytes32"
        },
        {
          "internalType": "bytes32",
          "name": "_nullifierHash",
          "type": "bytes32"
        },
        {
          "internalType": "address",
          "name": "_recipient",
          "type": "address"
        },
        {
          "internalType": "address",
          "name": "_relayer",
          "type": "address"
        },
        {
          "internalType": "uint256",
          "name": "_fee",
          "type": "uint256"
        },
        {
          "internalType": "uint256",
          "name": "_refund",
          "type": "uint256"
        }
      ],
      "name": "withdraw",
      "outputs": [],
      "stateMutability": "payable",
      "type": "function"
    },
    {
      "inputs": [
        {
          "internalType": "uint256",
          "name": "",
          "type": "uint256"
        }
      ],
      "name": "zeros",
      "outputs": [
        {
          "internalType": "bytes32",
          "name": "",
          "type": "bytes32"
        }
      ],
      "stateMutability": "view",
      "type": "function"
    }
  ],
  "bytecode": "0x6080604052600380546001600160401b03191690553480156200002157600080fd5b50d380156200002f57600080fd5b50d280156200003d57600080fd5b50604051620024d9380380620024d9833981016040819052620000609162000427565b8585858584828160008263ffffffff1611620000995760405162461bcd60e51b8152600401620000909062000586565b60405180910390fd5b60208263ffffffff1610620000c25760405162461bcd60e51b81526004016200009090620005cd565b6000805463ffffffff60a01b1916600160a01b63ffffffff851602176001600160a01b0319166001600160a01b0383161781556002805460018181019092557f2fe54c60d3acabf3343a35b6eba15db4821b340f76e741e2249685ed4899af6c600080516020620024798339815191529091018190558154808301835592829052600080516020620024b98339815191529092018290555b60005463ffffffff600160a01b90910481169082161015620001da5762000182828062000267565b600280546001818101909255600080516020620024798339815191520182905580548082018255600091909152600080516020620024b983398151915201819055915080620001d1816200061d565b9150506200015a565b50620001e7818062000267565b600455505060016068555083620002125760405162461bcd60e51b81526004016200009090620004cb565b50606c80546001600160a01b039586166001600160a01b031991821617909155606d80549286169282169290921790915560699290925550606e805494909216931692909217909155506200064e9350505050565b60006000805160206200249983398151915283106200029a5760405162461bcd60e51b8152600401620000909062000510565b600080516020620024998339815191528210620002cb5760405162461bcd60e51b8152600401620000909062000545565b6000805460405163f47d33b560e01b81528592916001600160a01b03169063f47d33b5906200030190859085906004016200060f565b604080518083038186803b1580156200031957600080fd5b505afa1580156200032e573d6000803e3d6000fd5b505050506040513d601f19601f82011682018060405250810190620003549190620004a7565b90925090506000805160206200249983398151915284830860005460405163f47d33b560e01b81529193506001600160a01b03169063f47d33b590620003a190859085906004016200060f565b604080518083038186803b158015620003b957600080fd5b505afa158015620003ce573d6000803e3d6000fd5b505050506040513d601f19601f82011682018060405250810190620003f49190620004a7565b5095945050505050565b80516000906001600160a81b038116811462000418578182fd5b6001600160a01b031692915050565b60008060008060008060c0878903121562000440578182fd5b6200044b87620003fe565b955060208701519450604087015163ffffffff811681146200046b578283fd5b93506200047b60608801620003fe565b92506200048b60808801620003fe565b91506200049b60a08801620003fe565b90509295509295509295565b60008060408385031215620004ba578182fd5b505080516020909101519092909150565b60208082526025908201527f64656e6f6d696e6174696f6e2073686f756c6420626520677265617465722074604082015264068616e20360dc1b606082015260800190565b6020808252818101527f5f6c6566742073686f756c6420626520696e7369646520746865206669656c64604082015260600190565b60208082526021908201527f5f72696768742073686f756c6420626520696e7369646520746865206669656c6040820152601960fa1b606082015260800190565b60208082526027908201527f5f747265654c6576656c732073686f756c642062652067726561746572207468604082015266616e207a65726f60c81b606082015260800190565b60208082526022908201527f5f747265654c6576656c732073686f756c64206265206c657373207468616e20604082015261199960f11b606082015260800190565b918252602082015260400190565b600063ffffffff808316818114156200064457634e487b7160e01b83526011600452602483fd5b6001019392505050565b611e1b806200065e6000396000f3fe60806040526004361061014b5760003560e01c806397fc007c116100b6578063e5285dcc1161006f578063e5285dcc1461050a578063e829558814610544578063ec7329591461057e578063f178e47c146105ad578063fc0c546a146105e7578063fc7e9c6f146106165761014b565b806397fc007c146103de5780639fa12d0b14610418578063b214faa51461045f578063ba70f75714610472578063c2b40ae4146104a1578063cd87a3b4146104db5761014b565b80634ecf518b116101085780634ecf518b146102a1578063570ca735146102dd5780636d9833e31461030c578063839df945146103465780638bca6d161461038057806390eeb02b146103af5761014b565b806306394c9b1461015057806317cc915c1461018c57806321a0adb6146101dc5780632b7ac3f3146101ef57806338bf282e1461022b578063414a37ba14610272575b600080fd5b34801561015c57600080fd5b50d3801561016957600080fd5b50d2801561017657600080fd5b5061018a6101853660046113c2565b610645565b005b34801561019857600080fd5b50d380156101a557600080fd5b50d280156101b257600080fd5b506101c66101c1366004611472565b61069a565b6040516101d39190611673565b60405180910390f35b61018a6101ea3660046114ab565b6106af565b3480156101fb57600080fd5b50d3801561020857600080fd5b50d2801561021557600080fd5b5061021e6108a8565b6040516101d391906115bb565b34801561023757600080fd5b50d3801561024457600080fd5b50d2801561025157600080fd5b5061026561026036600461148a565b6108b7565b6040516101d3919061167e565b34801561027e57600080fd5b50d3801561028b57600080fd5b50d2801561029857600080fd5b50610265610a39565b3480156102ad57600080fd5b50d380156102ba57600080fd5b50d280156102c757600080fd5b506102d0610a4b565b6040516101d39190611b29565b3480156102e957600080fd5b50d380156102f657600080fd5b50d2801561030357600080fd5b5061021e610a5e565b34801561031857600080fd5b50d3801561032557600080fd5b50d2801561033257600080fd5b506101c6610341366004611472565b610a6d565b34801561035257600080fd5b50d3801561035f57600080fd5b50d2801561036c57600080fd5b506101c661037b366004611472565b610afc565b34801561038c57600080fd5b50d3801561039957600080fd5b50d280156103a657600080fd5b50610265610b11565b3480156103bb57600080fd5b50d380156103c857600080fd5b50d280156103d557600080fd5b506102d0610b17565b3480156103ea57600080fd5b50d380156103f757600080fd5b50d2801561040457600080fd5b5061018a6104133660046113c2565b610b23565b34801561042457600080fd5b50d3801561043157600080fd5b50d2801561043e57600080fd5b5061045261044d3660046113e3565b610b6f565b6040516101d3919061162d565b61018a61046d366004611472565b610c4f565b34801561047e57600080fd5b50d3801561048b57600080fd5b50d2801561049857600080fd5b50610265610d27565b3480156104ad57600080fd5b50d380156104ba57600080fd5b50d280156104c757600080fd5b506102656104d6366004611472565b610d5b565b3480156104e757600080fd5b50d380156104f457600080fd5b50d2801561050157600080fd5b506102d0610d72565b34801561051657600080fd5b50d3801561052357600080fd5b50d2801561053057600080fd5b506101c661053f366004611472565b610d77565b34801561055057600080fd5b50d3801561055d57600080fd5b50d2801561056a57600080fd5b50610265610579366004611472565b610d8c565b34801561058a57600080fd5b50d3801561059757600080fd5b50d280156105a457600080fd5b50610265610dad565b3480156105b957600080fd5b50d380156105c657600080fd5b50d280156105d357600080fd5b506102656105e2366004611472565b610dd1565b3480156105f357600080fd5b50d3801561060057600080fd5b50d2801561060d57600080fd5b5061021e610de1565b34801561062257600080fd5b50d3801561062f57600080fd5b50d2801561063c57600080fd5b506102d0610df0565b606d546001600160a01b031633146106785760405162461bcd60e51b815260040161066f90611a9f565b60405180910390fd5b606d80546001600160a01b0319166001600160a01b0392909216919091179055565b606a6020526000908152604090205460ff1681565b6001606860008282546106c29190611b50565b90915550506068546069548311156106ec5760405162461bcd60e51b815260040161066f906117b2565b6000868152606a602052604090205460ff161561071b5760405162461bcd60e51b815260040161066f906119a0565b61072487610a6d565b6107405760405162461bcd60e51b815260040161066f9061177b565b606c546040805160c081018252898152602081018990526001600160a01b038881168284015287811660608301526080820187905260a08201869052915163695ef6f960e01b8152919092169163695ef6f9916107a4918d918d9190600401611687565b602060405180830381600087803b1580156107be57600080fd5b505af11580156107d2573d6000803e3d6000fd5b505050506040513d601f19601f820116820180604052508101906107f69190611452565b6108125760405162461bcd60e51b815260040161066f90611945565b6000868152606a60205260409020805460ff1916600117905561083785858585610e04565b836001600160a01b03167fe9e508bad6d4c3227e881ca19068f099da81b5164dd6d62b2eaf1e8bc6c34931868886604051610874939291906115f3565b60405180910390a2606854811461089d5760405162461bcd60e51b815260040161066f90611ae4565b505050505050505050565b606c546001600160a01b031681565b6000600080516020611dc683398151915283106108e65760405162461bcd60e51b815260040161066f90611880565b600080516020611dc683398151915282106109135760405162461bcd60e51b815260040161066f906118b5565b6000805460405163f47d33b560e01b81528592916001600160a01b03169063f47d33b5906109479085908590600401611b1b565b604080518083038186803b15801561095e57600080fd5b505afa158015610972573d6000803e3d6000fd5b505050506040513d601f19601f82011682018060405250810190610996919061155c565b9092509050600080516020611dc683398151915284830860005460405163f47d33b560e01b81529193506001600160a01b03169063f47d33b5906109e09085908590600401611b1b565b604080518083038186803b1580156109f757600080fd5b505afa158015610a0b573d6000803e3d6000fd5b505050506040513d601f19601f82011682018060405250810190610a2f919061155c565b5095945050505050565b600080516020611dc683398151915281565b600054600160a01b900463ffffffff1681565b606d546001600160a01b031681565b600081610a7c57506000610af7565b60035463ffffffff165b60048163ffffffff1660648110610aad57634e487b7160e01b600052603260045260246000fd5b0154831415610ac0576001915050610af7565b63ffffffff8116610acf575060645b80610ad981611d17565b60035490925063ffffffff808416911614159050610a865760009150505b919050565b606b6020526000908152604090205460ff1681565b60695481565b60035463ffffffff1681565b606d546001600160a01b03163314610b4d5760405162461bcd60e51b815260040161066f90611a9f565b606c80546001600160a01b0319166001600160a01b0392909216919091179055565b60608167ffffffffffffffff811115610b9857634e487b7160e01b600052604160045260246000fd5b604051908082528060200260200182016040528015610bc1578160200160208202803683370190505b50905060005b82811015610c4857610bfe848483818110610bf257634e487b7160e01b600052603260045260246000fd5b90506020020135610d77565b15610c36576001828281518110610c2557634e487b7160e01b600052603260045260246000fd5b911515602092830291909101909101525b80610c4081611d37565b915050610bc7565b5092915050565b600160686000828254610c629190611b50565b90915550506068546000828152606b602052604090205460ff1615610c995760405162461bcd60e51b815260040161066f906119d7565b6000610ca483610ef4565b6000848152606b60205260409020805460ff191660011790559050610cc7611122565b827fa945e51eec50ab98c161376f0db4cf2aeba3ec92755fe2fcd388bdbbb80ff1968242604051610cf9929190611b3a565b60405180910390a2506068548114610d235760405162461bcd60e51b815260040161066f90611ae4565b5050565b60035460009060049063ffffffff1660648110610d5457634e487b7160e01b600052603260045260246000fd5b0154905090565b60048160648110610d6b57600080fd5b0154905081565b606481565b6000908152606a602052604090205460ff1690565b60028181548110610d9c57600080fd5b600091825260209091200154905081565b7f2fe54c60d3acabf3343a35b6eba15db4821b340f76e741e2249685ed4899af6c81565b60018181548110610d9c57600080fd5b606e546001600160a01b031681565b600354640100000000900463ffffffff1681565b803414610e235760405162461bcd60e51b815260040161066f906117e9565b610e3a8483606954610e359190611cdb565b61114f565b8115610e4a57610e4a838361114f565b8015610eee576000846001600160a01b031682604051610e69906115b8565b60006040518083038185875af1925050503d8060008114610ea6576040519150601f19603f3d011682016040523d82523d6000602084013e610eab565b606091505b5050905080610eec576040516001600160a01b0385169083156108fc029084906000818181858888f19350505050158015610eea573d6000803e3d6000fd5b505b505b50505050565b60035460008054909163ffffffff640100000000909104811691610f2291600160a01b909104166002611bf9565b63ffffffff168163ffffffff161415610f4d5760405162461bcd60e51b815260040161066f906116e2565b6001600360048282829054906101000a900463ffffffff16610f6f9190611b68565b92506101000a81548163ffffffff021916908363ffffffff160217905550600083905060008060005b60005463ffffffff600160a01b9091048116908216101561109b57610fbe600286611d76565b63ffffffff166110385783925060028163ffffffff1681548110610ff257634e487b7160e01b600052603260045260246000fd5b906000526020600020015491508360018263ffffffff168154811061102757634e487b7160e01b600052603260045260246000fd5b600091825260209091200155611070565b60018163ffffffff168154811061105f57634e487b7160e01b600052603260045260246000fd5b906000526020600020015492508391505b61107a83836108b7565b9350611087600286611b90565b94508061109381611d52565b915050610f98565b506003546064906110b39063ffffffff166001611b68565b6110bd9190611d76565b6003805463ffffffff191663ffffffff9283161790819055849160049116606481106110f957634e487b7160e01b600052603260045260246000fd5b015560035461111890600190640100000000900463ffffffff16611cf2565b9695505050505050565b34156111405760405162461bcd60e51b815260040161066f90611a18565b61114d3330606954611274565b565b606e5460405160009182916001600160a01b039091169063a9059cbb9061117c9087908790602401611614565b6040516020818303038152906040529060e01b6020820180516001600160e01b0383818316178352505050506040516111b5919061157f565b6000604051808303816000865af19150503d80600081146111f2576040519150601f19603f3d011682016040523d82523d6000602084013e6111f7565b606091505b5091509150816112195760405162461bcd60e51b815260040161066f90611975565b805115610eee5780516020146112415760405162461bcd60e51b815260040161066f90611731565b808060200190518101906112559190611452565b915081610eee5760405162461bcd60e51b815260040161066f90611839565b606e5460405160009182916001600160a01b03909116906323b872dd906112a3908890889088906024016115cf565b6040516020818303038152906040529060e01b6020820180516001600160e01b0383818316178352505050506040516112dc919061157f565b6000604051808303816000865af19150503d8060008114611319576040519150601f19603f3d011682016040523d82523d6000602084013e61131e565b606091505b5091509150816113405760405162461bcd60e51b815260040161066f90611a68565b805115610eec5780516020146113685760405162461bcd60e51b815260040161066f90611731565b8080602001905181019061137c9190611452565b915081610eec5760405162461bcd60e51b815260040161066f906118f6565b600081356001600160a81b03811681146113b3578182fd5b6001600160a01b031692915050565b6000602082840312156113d3578081fd5b6113dc8261139b565b9392505050565b600080602083850312156113f5578081fd5b823567ffffffffffffffff8082111561140c578283fd5b818501915085601f83011261141f578283fd5b81358181111561142d578384fd5b8660208083028501011115611440578384fd5b60209290920196919550909350505050565b600060208284031215611463578081fd5b815180151581146113dc578182fd5b600060208284031215611483578081fd5b5035919050565b6000806040838503121561149c578182fd5b50508035926020909101359150565b60008060008060008060008060e0898b0312156114c6578384fd5b883567ffffffffffffffff808211156114dd578586fd5b818b0191508b601f8301126114f0578586fd5b8135818111156114fe578687fd5b8c602082850101111561150f578687fd5b60209283019a5098505089013595506040890135945061153160608a0161139b565b935061153f60808a0161139b565b925060a0890135915060c089013590509295985092959890939650565b6000806040838503121561156e578182fd5b505080516020909101519092909150565b60008251815b8181101561159f5760208186018101518583015201611585565b818111156115ad5782828501525b509190910192915050565b90565b6001600160a01b0391909116815260200190565b6001600160a01b039384168152919092166020820152604081019190915260600190565b6001600160a01b039390931683526020830191909152604082015260600190565b6001600160a01b03929092168252602082015260400190565b6020808252825182820181905260009190848201906040850190845b81811015611667578351151583529284019291840191600101611649565b50909695505050505050565b901515815260200190565b90815260200190565b600060e082528360e0830152610100848682850137828501810191909152601f8401601f191682010160208083018460005b60068110156116d6578151835291830191908301906001016116b9565b50505050949350505050565b6020808252602f908201527f4d65726b6c6520747265652069732066756c6c2e204e6f206d6f7265206c656160408201526e199cc818d85b881899481859191959608a1b606082015260800190565b6020808252602a908201527f64617461206c656e6774682073686f756c64206265206569746865722030206f6040820152697220333220627974657360b01b606082015260800190565b6020808252601c908201527f43616e6e6f742066696e6420796f7572206d65726b6c6520726f6f7400000000604082015260600190565b6020808252601a908201527f4665652065786365656473207472616e736665722076616c7565000000000000604082015260600190565b60208082526030908201527f496e636f727265637420726566756e6420616d6f756e7420726563656976656460408201526f08189e481d1a194818dbdb9d1c9858dd60821b606082015260800190565b60208082526027908201527f6e6f7420656e6f75676820746f6b656e732e20546f6b656e2072657475726e73604082015266103330b639b29760c91b606082015260800190565b6020808252818101527f5f6c6566742073686f756c6420626520696e7369646520746865206669656c64604082015260600190565b60208082526021908201527f5f72696768742073686f756c6420626520696e7369646520746865206669656c6040820152601960fa1b606082015260800190565b6020808252602f908201527f6e6f7420656e6f75676820616c6c6f77656420746f6b656e732e20546f6b656e60408201526e103932ba3ab93739903330b639b29760891b606082015260800190565b60208082526016908201527524b73b30b634b2103bb4ba34323930bb90383937b7b360511b604082015260600190565b6020808252601190820152706e6f7420656e6f75676820746f6b656e7360781b604082015260600190565b6020808252601f908201527f546865206e6f746520686173206265656e20616c7265616479207370656e7400604082015260600190565b60208082526021908201527f54686520636f6d6d69746d656e7420686173206265656e207375626d697474656040820152601960fa1b606082015260800190565b60208082526030908201527f4554482076616c756520697320737570706f73656420746f206265203020666f60408201526f7220455243323020696e7374616e636560801b606082015260800190565b60208082526019908201527f6e6f7420656e6f75676820616c6c6f77656420746f6b656e7300000000000000604082015260600190565b60208082526025908201527f4f6e6c79206f70657261746f722063616e2063616c6c20746869732066756e636040820152643a34b7b71760d91b606082015260800190565b6020808252601f908201527f5265656e7472616e637947756172643a207265656e7472616e742063616c6c00604082015260600190565b918252602082015260400190565b63ffffffff91909116815260200190565b63ffffffff929092168252602082015260400190565b60008219821115611b6357611b63611d99565b500190565b600063ffffffff808316818516808303821115611b8757611b87611d99565b01949350505050565b600063ffffffff80841680611ba757611ba7611daf565b92169190910492915050565b80825b6001808611611bc55750611bf0565b818704821115611bd757611bd7611d99565b80861615611be457918102915b9490941c938002611bb6565b94509492505050565b600063ffffffff611c0f81828616838616611c17565b949350505050565b600082611c26575060016113dc565b81611c33575060006113dc565b8160018114611c495760028114611c5357611c80565b60019150506113dc565b60ff841115611c6457611c64611d99565b6001841b915084821115611c7a57611c7a611d99565b506113dc565b5060208310610133831016604e8410600b8410161715611cb3575081810a83811115611cae57611cae611d99565b6113dc565b611cc08484846001611bb3565b808604821115611cd257611cd2611d99565b02949350505050565b600082821015611ced57611ced611d99565b500390565b600063ffffffff83811690831681811015611d0f57611d0f611d99565b039392505050565b600063ffffffff821680611d2d57611d2d611d99565b6000190192915050565b6000600019821415611d4b57611d4b611d99565b5060010190565b600063ffffffff80831681811415611d6c57611d6c611d99565b6001019392505050565b600063ffffffff80841680611d8d57611d8d611daf565b92169190910692915050565b634e487b7160e01b600052601160045260246000fd5b634e487b7160e01b600052601260045260246000fdfe30644e72e131a029b85045b68181585d2833e84879b9709143e1f593f0000001a2646970667358221220544b1756faea5308ea0ae1fe7a7da1f66bff9cc5aadca3048f2c42787f3d075164736f6c63430008000033405787fa12a823e0f2b7631cc41b3ba8828b3321ca811111fa75cd3aa3bb5ace30644e72e131a029b85045b68181585d2833e84879b9709143e1f593f0000001b10e2d527612073b26eecdfd717e6a320cf44b4afac2b0732d9fcbe2b7fa0cf6",
  "source": "// SPDX-License-Identifier: MIT\r\n/**\r\n *Submitted for verification at Etherscan.io on 2019-12-16\r\n*/\r\n\r\n// https://tornado.cash\r\n/*\r\n* d888888P                                           dP              a88888b.                   dP\r\n*    88                                              88             d8'   `88                   88\r\n*    88    .d8888b. 88d888b. 88d888b. .d8888b. .d888b88 .d8888b.    88        .d8888b. .d8888b. 88d888b.\r\n*    88    88'  `88 88'  `88 88'  `88 88'  `88 88'  `88 88'  `88    88        88'  `88 Y8ooooo. 88'  `88\r\n*    88    88.  .88 88       88    88 88.  .88 88.  .88 88.  .88 dP Y8.   .88 88.  .88       88 88    88\r\n*    dP    `88888P' dP       dP    dP `88888P8 `88888P8 `88888P' 88  Y88888P' `88888P8 `88888P' dP    dP\r\n* ooooooooooooooooooooooooooooooooooooooooooooooooooooooooooooooooooooooooooooooooooooooooooooooooooooooo\r\n*/\r\n\r\npragma solidity ^0.8.0;\r\n\r\ninterface IHasher {\r\n    function MiMCSponge(uint256 in_xL, uint256 in_xR) external pure returns (uint256 xL, uint256 xR);\r\n}\r\n\r\ncontract MerkleTreeWithHistory {\r\n    IHasher private hasher;\r\n    uint256 public constant FIELD_SIZE = 21888242871839275222246405745257275088548364400416034343698204186575808495617;\r\n    uint256 public constant ZERO_VALUE = 21663839004416932945382355908790599225266501822907911457504978515578255421292; // = keccak256(\"tornado\") % FIELD_SIZE\r\n\r\n    uint32 public levels;\r\n\r\n    // the following variables are made public for easier testing and debugging and\r\n    // are not supposed to be accessed in regular code\r\n    bytes32[] public filledSubtrees;\r\n    bytes32[] public zeros;\r\n    uint32 public currentRootIndex = 0;\r\n    uint32 public nextIndex = 0;\r\n    uint32 public constant ROOT_HISTORY_SIZE = 100;\r\n    bytes32[ROOT_HISTORY_SIZE] public roots;\r\n\r\n    constructor(uint32 _treeLevels, address _hasher) {\r\n        require(_treeLevels > 0, \"_treeLevels should be greater than zero\");\r\n        require(_treeLevels < 32, \"_treeLevels should be less than 32\");\r\n        levels = _treeLevels;\r\n        hasher = IHasher(_hasher);\r\n\r\n        bytes32 currentZero = bytes32(ZERO_VALUE);\r\n        zeros.push(currentZero);\r\n        filledSubtrees.push(currentZero);\r\n\r\n        for (uint32 i = 1; i < levels; i++) {\r\n            currentZero = hashLeftRight(currentZero, currentZero);\r\n            zeros.push(currentZero);\r\n            filledSubtrees.push(currentZero);\r\n        }\r\n\r\n        roots[0] = hashLeftRight(currentZero, currentZero);\r\n    }\r\n\r\n    /**\r\n@dev Hash 2 tree leaves, returns MiMC(_left, _right)\r\n  */\r\n    function hashLeftRight(bytes32 _left, bytes32 _right) public view returns (bytes32) {\r\n        require(uint256(_left) < FIELD_SIZE, \"_left should be inside the field\");\r\n        require(uint256(_right) < FIELD_SIZE, \"_right should be inside the field\");\r\n        uint256 R = uint256(_left);\r\n        uint256 C = 0;\r\n        (R, C) = hasher.MiMCSponge(R, C);\r\n        R = addmod(R, uint256(_right), FIELD_SIZE);\r\n        (R, C) = hasher.MiMCSponge(R, C);\r\n        return bytes32(R);\r\n    }\r\n\r\n    function _insert(bytes32 _leaf) internal returns(uint32 index) {\r\n        uint32 currentIndex = nextIndex;\r\n        require(currentIndex != uint32(2)**levels, \"Merkle tree is full. No more leafs can be added\");\r\n        nextIndex += 1;\r\n        bytes32 currentLevelHash = _leaf;\r\n        bytes32 left;\r\n        bytes32 right;\r\n\r\n        for (uint32 i = 0; i < levels; i++) {\r\n            if (currentIndex % 2 == 0) {\r\n                left = currentLevelHash;\r\n                right = zeros[i];\r\n\r\n                filledSubtrees[i] = currentLevelHash;\r\n            } else {\r\n                left = filledSubtrees[i];\r\n                right = currentLevelHash;\r\n            }\r\n\r\n            currentLevelHash = hashLeftRight(left, right);\r\n\r\n            currentIndex /= 2;\r\n        }\r\n\r\n        currentRootIndex = (currentRootIndex + 1) % ROOT_HISTORY_SIZE;\r\n        roots[currentRootIndex] = currentLevelHash;\r\n        return nextIndex - 1;\r\n    }\r\n\r\n    /**\r\n@dev Whether the root is present in the root history\r\n  */\r\n    function isKnownRoot(bytes32 _root) public view returns(bool) {\r\n        if (_root == 0) {\r\n            return false;\r\n        }\r\n        uint32 i = currentRootIndex;\r\n        do {\r\n            if (_root == roots[i]) {\r\n                return true;\r\n            }\r\n            if (i == 0) {\r\n                i = ROOT_HISTORY_SIZE;\r\n            }\r\n            i--;\r\n        } while (i != currentRootIndex);\r\n        return false;\r\n    }\r\n\r\n    /**\r\n@dev Returns the last root\r\n  */\r\n    function getLastRoot() public view returns(bytes32) {\r\n        return roots[currentRootIndex];\r\n    }\r\n}\r\n\r\n// File: @openzeppelin/contracts/utils/ReentrancyGuard.sol\r\n\r\n// pragma solidity ^0.5.0;\r\n\r\n/**\r\n * @dev Contract module that helps prevent reentrant calls to a function.\r\n *\r\n * Inheriting from `ReentrancyGuard` will make the {nonReentrant} modifier\r\n * available, which can be applied to functions to make sure there are no nested\r\n * (reentrant) calls to them.\r\n *\r\n * Note that because there is a single `nonReentrant` guard, functions marked as\r\n * `nonReentrant` may not call one another. This can be worked around by making\r\n * those functions `private`, and then adding `external` `nonReentrant` entry\r\n * points to them.\r\n */\r\ncontract ReentrancyGuard {\r\n    // counter to allow mutex lock with only one SSTORE operation\r\n    uint256 private _guardCounter;\r\n\r\n    constructor () {\r\n        // The counter starts at one to prevent changing it from zero to a non-zero\r\n        // value, which is a more expensive operation.\r\n        _guardCounter = 1;\r\n    }\r\n\r\n    /**\r\n     * @dev Prevents a contract from calling itself, directly or indirectly.\r\n     * Calling a `nonReentrant` function from another `nonReentrant`\r\n     * function is not supported. It is possible to prevent this from happening\r\n     * by making the `nonReentrant` function external, and make it call a\r\n     * `private` function that does the actual work.\r\n     */\r\n    modifier nonReentrant() {\r\n        _guardCounter += 1;\r\n        uint256 localCounter = _guardCounter;\r\n        _;\r\n        require(localCounter == _guardCounter, \"ReentrancyGuard: reentrant call\");\r\n    }\r\n}\r\n\r\n// File: contracts/Tornado.sol\r\n\r\n// https://tornado.cash\r\n/*\r\n* d888888P                                           dP              a88888b.                   dP\r\n*    88                                              88             d8'   `88                   88\r\n*    88    .d8888b. 88d888b. 88d888b. .d8888b. .d888b88 .d8888b.    88        .d8888b. .d8888b. 88d888b.\r\n*    88    88'  `88 88'  `88 88'  `88 88'  `88 88'  `88 88'  `88    88        88'  `88 Y8ooooo. 88'  `88\r\n*    88    88.  .88 88       88    88 88.  .88 88.  .88 88.  .88 dP Y8.   .88 88.  .88       88 88    88\r\n*    dP    `88888P' dP       dP    dP `88888P8 `88888P8 `88888P' 88  Y88888P' `88888P8 `88888P' dP    dP\r\n* ooooooooooooooooooooooooooooooooooooooooooooooooooooooooooooooooooooooooooooooooooooooooooooooooooooooo\r\n*/\r\n\r\n// pragma solidity ^0.5.8;\r\n\r\n\r\n\r\ninterface IVerifier {\r\n    function verifyProof(bytes memory _proof, uint256[6] memory _input) external  returns(bool);\r\n}\r\n\r\ncontract Tornado is MerkleTreeWithHistory, ReentrancyGuard {\r\n    uint256 public denomination;\r\n    mapping(bytes32 => bool) public nullifierHashes;\r\n    // we store all commitments just to prevent accidental deposits with the same commitment\r\n    mapping(bytes32 => bool) public commitments;\r\n    IVerifier public verifier;\r\n\r\n    // operator can update snark verification key\r\n    // after the final trusted setup ceremony operator rights are supposed to be transferred to zero address\r\n    address public operator;\r\n    modifier onlyOperator {\r\n        require(msg.sender == operator, \"Only operator can call this function.\");\r\n        _;\r\n    }\r\n\r\n    event Deposit(bytes32 indexed commitment, uint32 leafIndex, uint256 timestamp);\r\n    event Withdrawal(address to, bytes32 nullifierHash, address indexed relayer, uint256 fee);\r\n\r\n    /**\r\n@dev The constructor\r\n    @param _verifier the address of SNARK verifier for this contract\r\n    @param _denomination transfer amount for each deposit\r\n    @param _merkleTreeHeight the height of deposits' Merkle Tree\r\n    @param _operator operator address (see operator comment above)\r\n  */\r\n    constructor(\r\n        address _verifier,\r\n        uint256 _denomination,\r\n        uint32 _merkleTreeHeight,\r\n        address _operator,\r\n        address _hasher\r\n    ) MerkleTreeWithHistory(_merkleTreeHeight, _hasher) {\r\n        require(_denomination > 0, \"denomination should be greater than 0\");\r\n        verifier = IVerifier(_verifier);\r\n        operator = _operator;\r\n        denomination = _denomination;\r\n    }\r\n\r\n    /**\r\n@dev Deposit funds into the contract. The caller must send (for ETH) or approve (for ERC20) value equal to or `denomination` of this instance.\r\n    @param _commitment the note commitment, which is PedersenHash(nullifier + secret)\r\n  */\r\n    function deposit(bytes32 _commitment) external payable nonReentrant {\r\n        require(!commitments[_commitment], \"The commitment has been submitted\");\r\n\r\n        uint32 insertedIndex = _insert(_commitment);\r\n        commitments[_commitment] = true;\r\n        _processDeposit();\r\n\r\n        emit Deposit(_commitment, insertedIndex, block.timestamp);\r\n    }\r\n\r\n    /** @dev this function is defined in a child contract */\r\n    function _processDeposit() internal virtual{\r\n    }\r\n\r\n    /**\r\n@dev Withdraw a deposit from the contract. `proof` is a zkSNARK proof data, and input is an array of circuit public inputs\r\n    `input` array consists of:\r\n      - merkle root of all deposits in the contract\r\n      - hash of unique deposit nullifier to prevent double spends\r\n      - the recipient of funds\r\n      - optional fee that goes to the transaction sender (usually a relay)\r\n  */\r\n    function withdraw(bytes calldata _proof, bytes32 _root, bytes32 _nullifierHash, address  _recipient, address  _relayer, uint256 _fee, uint256 _refund) external payable nonReentrant {\r\n        require(_fee <= denomination, \"Fee exceeds transfer value\");\r\n        require(!nullifierHashes[_nullifierHash], \"The note has been already spent\");\r\n        require(isKnownRoot(_root), \"Cannot find your merkle root\"); // Make sure to use a recent one\r\n        require(verifier.verifyProof(_proof, [uint256(_root), uint256(_nullifierHash), uint256(uint160(_recipient)), uint256(uint160(_relayer)), _fee, _refund]), \"Invalid withdraw proof\");\r\n\r\n        nullifierHashes[_nullifierHash] = true;\r\n        _processWithdraw(payable(_recipient), payable(_relayer), _fee, _refund);\r\n        emit Withdrawal(_recipient, _nullifierHash, _relayer, _fee);\r\n    }\r\n\r\n    /** @dev this function is defined in a child contract */\r\n    function _processWithdraw(address payable _recipient, address payable _relayer, uint256 _fee, uint256 _refund) internal virtual{\r\n\r\n    }\r\n\r\n    /** @dev whether a note is already spent */\r\n    function isSpent(bytes32 _nullifierHash) public view returns(bool) {\r\n        return nullifierHashes[_nullifierHash];\r\n    }\r\n\r\n    /** @dev whether an array of notes is already spent */\r\n    function isSpentArray(bytes32[] calldata _nullifierHashes) external view returns(bool[] memory spent) {\r\n        spent = new bool[](_nullifierHashes.length);\r\n        for(uint i = 0; i < _nullifierHashes.length; i++) {\r\n            if (isSpent(_nullifierHashes[i])) {\r\n                spent[i] = true;\r\n            }\r\n        }\r\n    }\r\n\r\n    /**\r\n@dev allow operator to update SNARK verification keys. This is needed to update keys after the final trusted setup ceremony is held.\r\n    After that operator rights are supposed to be transferred to zero address\r\n  */\r\n    function updateVerifier(address _newVerifier) external onlyOperator {\r\n        verifier = IVerifier(_newVerifier);\r\n    }\r\n\r\n    /** @dev operator can change his address */\r\n    function changeOperator(address _newOperator) external onlyOperator {\r\n        operator = _newOperator;\r\n    }\r\n}\r\n\r\n// File: contracts/ERC20Tornado.sol\r\n\r\n// https://tornado.cash\r\n/*\r\n* d888888P                                           dP              a88888b.                   dP\r\n*    88                                              88             d8'   `88                   88\r\n*    88    .d8888b. 88d888b. 88d888b. .d8888b. .d888b88 .d8888b.    88        .d8888b. .d8888b. 88d888b.\r\n*    88    88'  `88 88'  `88 88'  `88 88'  `88 88'  `88 88'  `88    88        88'  `88 Y8ooooo. 88'  `88\r\n*    88    88.  .88 88       88    88 88.  .88 88.  .88 88.  .88 dP Y8.   .88 88.  .88       88 88    88\r\n*    dP    `88888P' dP       dP    dP `88888P8 `88888P8 `88888P' 88  Y88888P' `88888P8 `88888P' dP    dP\r\n* ooooooooooooooooooooooooooooooooooooooooooooooooooooooooooooooooooooooooooooooooooooooooooooooooooooooo\r\n*/\r\n\r\n// pragma solidity ^0.5.8;\r\n\r\n\r\ncontract TornadoCash_erc20 is Tornado {\r\n    address public token;\r\n\r\n    constructor(\r\n        address _verifier,\r\n        uint256 _denomination,\r\n        uint32 _merkleTreeHeight,\r\n        address _operator,\r\n        address _token,\r\n        address _hasher\r\n    ) Tornado(_verifier, _denomination, _merkleTreeHeight, _operator, _hasher) {\r\n        token = _token;\r\n    }\r\n\r\n    function _processDeposit() internal override{\r\n        require(msg.value == 0, \"ETH value is supposed to be 0 for ERC20 instance\");\r\n        _safeErc20TransferFrom(msg.sender, address(this), denomination);\r\n    }\r\n\r\n    function _processWithdraw(address payable _recipient, address payable _relayer, uint256 _fee, uint256 _refund) internal override{\r\n        require(msg.value == _refund, \"Incorrect refund amount received by the contract\");\r\n\r\n        _safeErc20Transfer(_recipient, denomination - _fee);\r\n        if (_fee > 0) {\r\n            _safeErc20Transfer(_relayer, _fee);\r\n        }\r\n\r\n        if (_refund > 0) {\r\n            (bool success, ) = _recipient.call{value : _refund}(\"\");\r\n            if (!success) {\r\n                // let's return _refund back to the relayer\r\n                _relayer.transfer(_refund);\r\n            }\r\n        }\r\n    }\r\n\r\n    function _safeErc20TransferFrom(address _from, address _to, uint256 _amount) internal {\r\n        (bool success, bytes memory data) = token.call(abi.encodeWithSelector(0x23b872dd /* transferFrom */, _from, _to, _amount));\r\n        require(success, \"not enough allowed tokens\");\r\n\r\n        // if contract returns some data lets make sure that is `true` according to standard\r\n        if (data.length > 0) {\r\n            require(data.length == 32, \"data length should be either 0 or 32 bytes\");\r\n            success = abi.decode(data, (bool));\r\n            require(success, \"not enough allowed tokens. Token returns false.\");\r\n        }\r\n    }\r\n\r\n    function _safeErc20Transfer(address _to, uint256 _amount) internal {\r\n        (bool success, bytes memory data) = token.call(abi.encodeWithSelector(0xa9059cbb /* transfer */, _to, _amount));\r\n        require(success, \"not enough tokens\");\r\n\r\n        // if contract returns some data lets make sure that is `true` according to standard\r\n        if (data.length > 0) {\r\n            require(data.length == 32, \"data length should be either 0 or 32 bytes\");\r\n            success = abi.decode(data, (bool));\r\n            require(success, \"not enough tokens. Token returns false.\");\r\n        }\r\n    }\r\n}",
  "sourcePath": "D:/NodejsSpace/tronbox-js-tornado/contracts/TornadoCash_erc20.sol",
  "compiler": {
    "name": "solc",
    "version": "0.8.0+commit.7c2e6412.Emscripten.clang"
  },
  "schemaVersion": "2.0.1",
  "updatedAt": "2023-07-04T11:34:56.168Z"
}