{
  "contractName": "TornadoCash_Eth_01",
  "abi": [
    {
      "inputs": [
        {
          "internalType": "address",
          "name": "_verifier",
          "type": "address"
        },
        {
          "internalType": "uint256",
          "name": "_denomination",
          "type": "uint256"
        },
        {
          "internalType": "uint32",
          "name": "_merkleTreeHeight",
          "type": "uint32"
        },
        {
          "internalType": "address",
          "name": "_operator",
          "type": "address"
        },
        {
          "internalType": "address",
          "name": "_hasher",
          "type": "address"
        }
      ],
      "stateMutability": "nonpayable",
      "type": "constructor"
    },
    {
      "anonymous": false,
      "inputs": [
        {
          "indexed": true,
          "internalType": "bytes32",
          "name": "commitment",
          "type": "bytes32"
        },
        {
          "indexed": false,
          "internalType": "uint32",
          "name": "leafIndex",
          "type": "uint32"
        },
        {
          "indexed": false,
          "internalType": "uint256",
          "name": "timestamp",
          "type": "uint256"
        }
      ],
      "name": "Deposit",
      "type": "event"
    },
    {
      "anonymous": false,
      "inputs": [
        {
          "indexed": false,
          "internalType": "address",
          "name": "to",
          "type": "address"
        },
        {
          "indexed": false,
          "internalType": "bytes32",
          "name": "nullifierHash",
          "type": "bytes32"
        },
        {
          "indexed": true,
          "internalType": "address",
          "name": "relayer",
          "type": "address"
        },
        {
          "indexed": false,
          "internalType": "uint256",
          "name": "fee",
          "type": "uint256"
        }
      ],
      "name": "Withdrawal",
      "type": "event"
    },
    {
      "inputs": [],
      "name": "FIELD_SIZE",
      "outputs": [
        {
          "internalType": "uint256",
          "name": "",
          "type": "uint256"
        }
      ],
      "stateMutability": "view",
      "type": "function"
    },
    {
      "inputs": [],
      "name": "ROOT_HISTORY_SIZE",
      "outputs": [
        {
          "internalType": "uint32",
          "name": "",
          "type": "uint32"
        }
      ],
      "stateMutability": "view",
      "type": "function"
    },
    {
      "inputs": [],
      "name": "ZERO_VALUE",
      "outputs": [
        {
          "internalType": "uint256",
          "name": "",
          "type": "uint256"
        }
      ],
      "stateMutability": "view",
      "type": "function"
    },
    {
      "inputs": [
        {
          "internalType": "address",
          "name": "_newOperator",
          "type": "address"
        }
      ],
      "name": "changeOperator",
      "outputs": [],
      "stateMutability": "nonpayable",
      "type": "function"
    },
    {
      "inputs": [
        {
          "internalType": "bytes32",
          "name": "",
          "type": "bytes32"
        }
      ],
      "name": "commitments",
      "outputs": [
        {
          "internalType": "bool",
          "name": "",
          "type": "bool"
        }
      ],
      "stateMutability": "view",
      "type": "function"
    },
    {
      "inputs": [],
      "name": "currentRootIndex",
      "outputs": [
        {
          "internalType": "uint32",
          "name": "",
          "type": "uint32"
        }
      ],
      "stateMutability": "view",
      "type": "function"
    },
    {
      "inputs": [],
      "name": "denomination",
      "outputs": [
        {
          "internalType": "uint256",
          "name": "",
          "type": "uint256"
        }
      ],
      "stateMutability": "view",
      "type": "function"
    },
    {
      "inputs": [
        {
          "internalType": "bytes32",
          "name": "_commitment",
          "type": "bytes32"
        }
      ],
      "name": "deposit",
      "outputs": [],
      "stateMutability": "payable",
      "type": "function"
    },
    {
      "inputs": [
        {
          "internalType": "uint256",
          "name": "",
          "type": "uint256"
        }
      ],
      "name": "filledSubtrees",
      "outputs": [
        {
          "internalType": "bytes32",
          "name": "",
          "type": "bytes32"
        }
      ],
      "stateMutability": "view",
      "type": "function"
    },
    {
      "inputs": [],
      "name": "finishMigration",
      "outputs": [],
      "stateMutability": "payable",
      "type": "function"
    },
    {
      "inputs": [],
      "name": "getLastRoot",
      "outputs": [
        {
          "internalType": "bytes32",
          "name": "",
          "type": "bytes32"
        }
      ],
      "stateMutability": "view",
      "type": "function"
    },
    {
      "inputs": [
        {
          "internalType": "bytes32",
          "name": "_left",
          "type": "bytes32"
        },
        {
          "internalType": "bytes32",
          "name": "_right",
          "type": "bytes32"
        }
      ],
      "name": "hashLeftRight",
      "outputs": [
        {
          "internalType": "bytes32",
          "name": "",
          "type": "bytes32"
        }
      ],
      "stateMutability": "view",
      "type": "function"
    },
    {
      "inputs": [],
      "name": "hasher",
      "outputs": [
        {
          "internalType": "contract IHasher",
          "name": "",
          "type": "address"
        }
      ],
      "stateMutability": "view",
      "type": "function"
    },
    {
      "inputs": [
        {
          "internalType": "bytes32[]",
          "name": "_filledSubtrees",
          "type": "bytes32[]"
        },
        {
          "internalType": "bytes32",
          "name": "_root",
          "type": "bytes32"
        }
      ],
      "name": "initializeTreeForMigration",
      "outputs": [],
      "stateMutability": "nonpayable",
      "type": "function"
    },
    {
      "inputs": [
        {
          "internalType": "bytes32",
          "name": "_root",
          "type": "bytes32"
        }
      ],
      "name": "isKnownRoot",
      "outputs": [
        {
          "internalType": "bool",
          "name": "",
          "type": "bool"
        }
      ],
      "stateMutability": "view",
      "type": "function"
    },
    {
      "inputs": [],
      "name": "isMigrated",
      "outputs": [
        {
          "internalType": "bool",
          "name": "",
          "type": "bool"
        }
      ],
      "stateMutability": "view",
      "type": "function"
    },
    {
      "inputs": [
        {
          "internalType": "bytes32",
          "name": "_nullifierHash",
          "type": "bytes32"
        }
      ],
      "name": "isSpent",
      "outputs": [
        {
          "internalType": "bool",
          "name": "",
          "type": "bool"
        }
      ],
      "stateMutability": "view",
      "type": "function"
    },
    {
      "inputs": [
        {
          "internalType": "bytes32[]",
          "name": "_nullifierHashes",
          "type": "bytes32[]"
        }
      ],
      "name": "isSpentArray",
      "outputs": [
        {
          "internalType": "bool[]",
          "name": "spent",
          "type": "bool[]"
        }
      ],
      "stateMutability": "view",
      "type": "function"
    },
    {
      "inputs": [],
      "name": "levels",
      "outputs": [
        {
          "internalType": "uint32",
          "name": "",
          "type": "uint32"
        }
      ],
      "stateMutability": "view",
      "type": "function"
    },
    {
      "inputs": [
        {
          "internalType": "bytes32[]",
          "name": "_commitments",
          "type": "bytes32[]"
        },
        {
          "internalType": "bytes32[]",
          "name": "_nullifierHashes",
          "type": "bytes32[]"
        }
      ],
      "name": "migrateState",
      "outputs": [],
      "stateMutability": "nonpayable",
      "type": "function"
    },
    {
      "inputs": [],
      "name": "nextIndex",
      "outputs": [
        {
          "internalType": "uint32",
          "name": "",
          "type": "uint32"
        }
      ],
      "stateMutability": "view",
      "type": "function"
    },
    {
      "inputs": [
        {
          "internalType": "bytes32",
          "name": "",
          "type": "bytes32"
        }
      ],
      "name": "nullifierHashes",
      "outputs": [
        {
          "internalType": "bool",
          "name": "",
          "type": "bool"
        }
      ],
      "stateMutability": "view",
      "type": "function"
    },
    {
      "inputs": [],
      "name": "operator",
      "outputs": [
        {
          "internalType": "address",
          "name": "",
          "type": "address"
        }
      ],
      "stateMutability": "view",
      "type": "function"
    },
    {
      "inputs": [
        {
          "internalType": "uint256",
          "name": "",
          "type": "uint256"
        }
      ],
      "name": "roots",
      "outputs": [
        {
          "internalType": "bytes32",
          "name": "",
          "type": "bytes32"
        }
      ],
      "stateMutability": "view",
      "type": "function"
    },
    {
      "inputs": [
        {
          "internalType": "address",
          "name": "_newVerifier",
          "type": "address"
        }
      ],
      "name": "updateVerifier",
      "outputs": [],
      "stateMutability": "nonpayable",
      "type": "function"
    },
    {
      "inputs": [],
      "name": "verifier",
      "outputs": [
        {
          "internalType": "contract IVerifier",
          "name": "",
          "type": "address"
        }
      ],
      "stateMutability": "view",
      "type": "function"
    },
    {
      "inputs": [
        {
          "internalType": "bytes",
          "name": "_proof",
          "type": "bytes"
        },
        {
          "internalType": "bytes32",
          "name": "_root",
          "type": "bytes32"
        },
        {
          "internalType": "bytes32",
          "name": "_nullifierHash",
          "type": "bytes32"
        },
        {
          "internalType": "address",
          "name": "_recipient",
          "type": "address"
        },
        {
          "internalType": "address",
          "name": "_relayer",
          "type": "address"
        },
        {
          "internalType": "uint256",
          "name": "_fee",
          "type": "uint256"
        },
        {
          "internalType": "uint256",
          "name": "_refund",
          "type": "uint256"
        }
      ],
      "name": "withdraw",
      "outputs": [],
      "stateMutability": "payable",
      "type": "function"
    },
    {
      "inputs": [
        {
          "internalType": "uint256",
          "name": "",
          "type": "uint256"
        }
      ],
      "name": "zeros",
      "outputs": [
        {
          "internalType": "bytes32",
          "name": "",
          "type": "bytes32"
        }
      ],
      "stateMutability": "view",
      "type": "function"
    }
  ],
  "bytecode": "0x6080604052600380546001600160401b0319169055606d805460ff60a01b191690553480156200002e57600080fd5b50d380156200003c57600080fd5b50d280156200004a57600080fd5b50604051620027c9380380620027c98339810160408190526200006d9162000427565b84848484848484848484828160008263ffffffff1611620000ab5760405162461bcd60e51b8152600401620000a29062000575565b60405180910390fd5b60208263ffffffff1610620000d45760405162461bcd60e51b8152600401620000a290620005bc565b6000805463ffffffff60a01b1916600160a01b63ffffffff851602176001600160a01b0319166001600160a01b0383161781556002805460018181019092557f2fe54c60d3acabf3343a35b6eba15db4821b340f76e741e2249685ed4899af6c600080516020620027698339815191529091018190558154808301835592829052600080516020620027a98339815191529092018290555b60005463ffffffff600160a01b90910481169082161015620001ec5762000194828062000267565b600280546001818101909255600080516020620027698339815191520182905580548082018255600091909152600080516020620027a983398151915201819055915080620001e3816200060c565b9150506200016c565b50620001f9818062000267565b600455505060016068555083620002245760405162461bcd60e51b8152600401620000a290620004ba565b50606c80546001600160a01b039586166001600160a01b031991821617909155606d805492909516911617909255606955506200063d9950505050505050505050565b60006000805160206200278983398151915283106200029a5760405162461bcd60e51b8152600401620000a290620004ff565b600080516020620027898339815191528210620002cb5760405162461bcd60e51b8152600401620000a29062000534565b6000805460405163f47d33b560e01b81528592916001600160a01b03169063f47d33b590620003019085908590600401620005fe565b604080518083038186803b1580156200031957600080fd5b505afa1580156200032e573d6000803e3d6000fd5b505050506040513d601f19601f8201168201806040525081019062000354919062000496565b90925090506000805160206200278983398151915284830860005460405163f47d33b560e01b81529193506001600160a01b03169063f47d33b590620003a19085908590600401620005fe565b604080518083038186803b158015620003b957600080fd5b505afa158015620003ce573d6000803e3d6000fd5b505050506040513d601f19601f82011682018060405250810190620003f4919062000496565b5095945050505050565b80516000906001600160a81b038116811462000418578182fd5b6001600160a01b031692915050565b600080600080600060a086880312156200043f578081fd5b6200044a86620003fe565b945060208601519350604086015163ffffffff811681146200046a578182fd5b92506200047a60608701620003fe565b91506200048a60808701620003fe565b90509295509295909350565b60008060408385031215620004a9578182fd5b505080516020909101519092909150565b60208082526025908201527f64656e6f6d696e6174696f6e2073686f756c6420626520677265617465722074604082015264068616e20360dc1b606082015260800190565b6020808252818101527f5f6c6566742073686f756c6420626520696e7369646520746865206669656c64604082015260600190565b60208082526021908201527f5f72696768742073686f756c6420626520696e7369646520746865206669656c6040820152601960fa1b606082015260800190565b60208082526027908201527f5f747265654c6576656c732073686f756c642062652067726561746572207468604082015266616e207a65726f60c81b606082015260800190565b60208082526022908201527f5f747265654c6576656c732073686f756c64206265206c657373207468616e20604082015261199960f11b606082015260800190565b918252602082015260400190565b600063ffffffff808316818114156200063357634e487b7160e01b83526011600452602483fd5b6001019392505050565b61211c806200064d6000396000f3fe6080604052600436106101b75760003560e01c8063916710aa116100ec578063cd87a3b41161008a578063ec73295911610064578063ec73295914610695578063ed33639f146106c4578063f178e47c146106f3578063fc7e9c6f1461072d576101b7565b8063cd87a3b4146105f2578063e5285dcc14610621578063e82955881461065b576101b7565b8063b06faf62116100c6578063b06faf6214610547578063b214faa514610576578063ba70f75714610589578063c2b40ae4146105b8576101b7565b8063916710aa1461048c57806397fc007c146104c65780639fa12d0b14610500576101b7565b8063570ca73511610159578063839df94511610133578063839df945146103ec57806388d761f2146104265780638bca6d161461042e57806390eeb02b1461045d576101b7565b8063570ca735146103495780636ba355aa146103785780636d9833e3146103b2576101b7565b80632b7ac3f3116101955780632b7ac3f31461025b57806338bf282e14610297578063414a37ba146102de5780634ecf518b1461030d576101b7565b806306394c9b146101bc57806317cc915c146101f857806321a0adb614610248575b600080fd5b3480156101c857600080fd5b50d380156101d557600080fd5b50d280156101e257600080fd5b506101f66101f13660046116b0565b61075c565b005b34801561020457600080fd5b50d3801561021157600080fd5b50d2801561021e57600080fd5b5061023261022d3660046117e4565b6107b1565b60405161023f919061196f565b60405180910390f35b6101f661025636600461181d565b6107c6565b34801561026757600080fd5b50d3801561027457600080fd5b50d2801561028157600080fd5b5061028a6109bd565b60405161023f91906118f4565b3480156102a357600080fd5b50d380156102b057600080fd5b50d280156102bd57600080fd5b506102d16102cc3660046117fc565b6109cc565b60405161023f919061197a565b3480156102ea57600080fd5b50d380156102f757600080fd5b50d2801561030457600080fd5b506102d1610b4e565b34801561031957600080fd5b50d3801561032657600080fd5b50d2801561033357600080fd5b5061033c610b60565b60405161023f9190611e2a565b34801561035557600080fd5b50d3801561036257600080fd5b50d2801561036f57600080fd5b5061028a610b73565b34801561038457600080fd5b50d3801561039157600080fd5b50d2801561039e57600080fd5b506101f66103ad36600461177a565b610b82565b3480156103be57600080fd5b50d380156103cb57600080fd5b50d280156103d857600080fd5b506102326103e73660046117e4565b610bea565b3480156103f857600080fd5b50d3801561040557600080fd5b50d2801561041257600080fd5b506102326104213660046117e4565b610c79565b6101f6610c8e565b34801561043a57600080fd5b50d3801561044757600080fd5b50d2801561045457600080fd5b506102d1610ccd565b34801561046957600080fd5b50d3801561047657600080fd5b50d2801561048357600080fd5b5061033c610cd3565b34801561049857600080fd5b50d380156104a557600080fd5b50d280156104b257600080fd5b506101f66104c1366004611711565b610cdf565b3480156104d257600080fd5b50d380156104df57600080fd5b50d280156104ec57600080fd5b506101f66104fb3660046116b0565b610f57565b34801561050c57600080fd5b50d3801561051957600080fd5b50d2801561052657600080fd5b5061053a6105353660046116d1565b610fa3565b60405161023f9190611929565b34801561055357600080fd5b50d3801561056057600080fd5b50d2801561056d57600080fd5b50610232611083565b6101f66105843660046117e4565b611093565b34801561059557600080fd5b50d380156105a257600080fd5b50d280156105af57600080fd5b506102d161116b565b3480156105c457600080fd5b50d380156105d157600080fd5b50d280156105de57600080fd5b506102d16105ed3660046117e4565b61119f565b3480156105fe57600080fd5b50d3801561060b57600080fd5b50d2801561061857600080fd5b5061033c6111b6565b34801561062d57600080fd5b50d3801561063a57600080fd5b50d2801561064757600080fd5b506102326106563660046117e4565b6111bb565b34801561066757600080fd5b50d3801561067457600080fd5b50d2801561068157600080fd5b506102d16106903660046117e4565b6111d0565b3480156106a157600080fd5b50d380156106ae57600080fd5b50d280156106bb57600080fd5b506102d16111f1565b3480156106d057600080fd5b50d380156106dd57600080fd5b50d280156106ea57600080fd5b5061028a611215565b3480156106ff57600080fd5b50d3801561070c57600080fd5b50d2801561071957600080fd5b506102d16107283660046117e4565b611224565b34801561073957600080fd5b50d3801561074657600080fd5b50d2801561075357600080fd5b5061033c611234565b606d546001600160a01b0316331461078f5760405162461bcd60e51b815260040161078690611d4b565b60405180910390fd5b606d80546001600160a01b0319166001600160a01b0392909216919091179055565b606a6020526000908152604090205460ff1681565b6001606860008282546107d99190611e51565b90915550506068546069548311156108035760405162461bcd60e51b815260040161078690611abd565b6000868152606a602052604090205460ff16156108325760405162461bcd60e51b815260040161078690611c4b565b61083b87610bea565b6108575760405162461bcd60e51b815260040161078690611a86565b606c546040805160c081018252898152602081018990526001600160a01b038881168284015287811660608301526080820187905260a08201869052915163695ef6f960e01b8152919092169163695ef6f9916108bb918d918d9190600401611983565b60206040518083038186803b1580156108d357600080fd5b505afa1580156108e7573d6000803e3d6000fd5b505050506040513d601f19601f8201168201806040525081019061090b91906117c4565b6109275760405162461bcd60e51b815260040161078690611bc7565b6000868152606a60205260409020805460ff1916600117905561094c85858585611248565b836001600160a01b03167fe9e508bad6d4c3227e881ca19068f099da81b5164dd6d62b2eaf1e8bc6c3493186888660405161098993929190611908565b60405180910390a260685481146109b25760405162461bcd60e51b815260040161078690611d90565b505050505050505050565b606c546001600160a01b031681565b60006000805160206120c783398151915283106109fb5760405162461bcd60e51b815260040161078690611b51565b6000805160206120c78339815191528210610a285760405162461bcd60e51b815260040161078690611b86565b6000805460405163f47d33b560e01b81528592916001600160a01b03169063f47d33b590610a5c9085908590600401611e1c565b604080518083038186803b158015610a7357600080fd5b505afa158015610a87573d6000803e3d6000fd5b505050506040513d601f19601f82011682018060405250810190610aab91906118ce565b90925090506000805160206120c783398151915284830860005460405163f47d33b560e01b81529193506001600160a01b03169063f47d33b590610af59085908590600401611e1c565b604080518083038186803b158015610b0c57600080fd5b505afa158015610b20573d6000803e3d6000fd5b505050506040513d601f19601f82011682018060405250810190610b4491906118ce565b5095945050505050565b6000805160206120c783398151915281565b600054600160a01b900463ffffffff1681565b606d546001600160a01b031681565b606d546001600160a01b03163314610bac5760405162461bcd60e51b815260040161078690611d4b565b606d54600160a01b900460ff1615610bd65760405162461bcd60e51b8152600401610786906119de565b610be2600184846115e0565b506004555050565b600081610bf957506000610c74565b60035463ffffffff165b60048163ffffffff1660648110610c2a57634e487b7160e01b600052603260045260246000fd5b0154831415610c3d576001915050610c74565b63ffffffff8116610c4c575060645b80610c5681612018565b60035490925063ffffffff808416911614159050610c035760009150505b919050565b606b6020526000908152604090205460ff1681565b606d546001600160a01b03163314610cb85760405162461bcd60e51b815260040161078690611d4b565b606d805460ff60a01b1916600160a01b179055565b60695481565b60035463ffffffff1681565b606d546001600160a01b03163314610d095760405162461bcd60e51b815260040161078690611d4b565b606d54600160a01b900460ff1615610d335760405162461bcd60e51b815260040161078690611a57565b60005b63ffffffff8116841115610e31576001606b600087878563ffffffff16818110610d7057634e487b7160e01b600052603260045260246000fd5b90506020020135815260200190815260200160002060006101000a81548160ff02191690831515021790555084848263ffffffff16818110610dc257634e487b7160e01b600052603260045260246000fd5b905060200201357fa945e51eec50ab98c161376f0db4cf2aeba3ec92755fe2fcd388bdbbb80ff19682600360049054906101000a900463ffffffff16610e089190611e69565b42604051610e17929190611e3b565b60405180910390a280610e2981612053565b915050610d36565b5060038054849190600490610e55908490640100000000900463ffffffff16611e69565b92506101000a81548163ffffffff021916908363ffffffff16021790555060005b81811015610f50576001606a6000858585818110610ea457634e487b7160e01b600052603260045260246000fd5b90506020020135815260200190815260200160002060006101000a81548160ff02191690831515021790555060006001600160a01b03167fe9e508bad6d4c3227e881ca19068f099da81b5164dd6d62b2eaf1e8bc6c349316000858585818110610f1e57634e487b7160e01b600052603260045260246000fd5b905060200201356000604051610f3693929190611908565b60405180910390a280610f4881612038565b915050610e76565b5050505050565b606d546001600160a01b03163314610f815760405162461bcd60e51b815260040161078690611d4b565b606c80546001600160a01b0319166001600160a01b0392909216919091179055565b60608167ffffffffffffffff811115610fcc57634e487b7160e01b600052604160045260246000fd5b604051908082528060200260200182016040528015610ff5578160200160208202803683370190505b50905060005b8281101561107c5761103284848381811061102657634e487b7160e01b600052603260045260246000fd5b905060200201356111bb565b1561106a57600182828151811061105957634e487b7160e01b600052603260045260246000fd5b911515602092830291909101909101525b8061107481612038565b915050610ffb565b5092915050565b606d54600160a01b900460ff1681565b6001606860008282546110a69190611e51565b90915550506068546000828152606b602052604090205460ff16156110dd5760405162461bcd60e51b815260040161078690611c82565b60006110e88361138f565b6000848152606b60205260409020805460ff19166001179055905061110b6115bd565b827fa945e51eec50ab98c161376f0db4cf2aeba3ec92755fe2fcd388bdbbb80ff196824260405161113d929190611e3b565b60405180910390a25060685481146111675760405162461bcd60e51b815260040161078690611d90565b5050565b60035460009060049063ffffffff166064811061119857634e487b7160e01b600052603260045260246000fd5b0154905090565b600481606481106111af57600080fd5b0154905081565b606481565b6000908152606a602052604090205460ff1690565b600281815481106111e057600080fd5b600091825260209091200154905081565b7f2fe54c60d3acabf3343a35b6eba15db4821b340f76e741e2249685ed4899af6c81565b6000546001600160a01b031681565b600181815481106111e057600080fd5b600354640100000000900463ffffffff1681565b34156112665760405162461bcd60e51b815260040161078690611dc7565b80156112845760405162461bcd60e51b815260040161078690611bf7565b6000846001600160a01b03168360695461129e9190611fdc565b6040516112aa906118f1565b60006040518083038185875af1925050503d80600081146112e7576040519150601f19603f3d011682016040523d82523d6000602084013e6112ec565b606091505b505090508061130d5760405162461bcd60e51b815260040161078690611cc3565b8215610f5057836001600160a01b03168360405161132a906118f1565b60006040518083038185875af1925050503d8060008114611367576040519150601f19603f3d011682016040523d82523d6000602084013e61136c565b606091505b50508091505080610f505760405162461bcd60e51b815260040161078690611d08565b60035460008054909163ffffffff6401000000009091048116916113bd91600160a01b909104166002611efa565b63ffffffff168163ffffffff1614156113e85760405162461bcd60e51b815260040161078690611a08565b6001600360048282829054906101000a900463ffffffff1661140a9190611e69565b92506101000a81548163ffffffff021916908363ffffffff160217905550600083905060008060005b60005463ffffffff600160a01b9091048116908216101561153657611459600286612077565b63ffffffff166114d35783925060028163ffffffff168154811061148d57634e487b7160e01b600052603260045260246000fd5b906000526020600020015491508360018263ffffffff16815481106114c257634e487b7160e01b600052603260045260246000fd5b60009182526020909120015561150b565b60018163ffffffff16815481106114fa57634e487b7160e01b600052603260045260246000fd5b906000526020600020015492508391505b61151583836109cc565b9350611522600286611e91565b94508061152e81612053565b915050611433565b5060035460649061154e9063ffffffff166001611e69565b6115589190612077565b6003805463ffffffff191663ffffffff92831617908190558491600491166064811061159457634e487b7160e01b600052603260045260246000fd5b01556003546115b390600190640100000000900463ffffffff16611ff3565b9695505050505050565b60695434146115de5760405162461bcd60e51b815260040161078690611af4565b565b82805482825590600052602060002090810192821561161b579160200282015b8281111561161b578235825591602001919060010190611600565b5061162792915061162b565b5090565b5b80821115611627576000815560010161162c565b600081356001600160a81b0381168114611658578182fd5b6001600160a01b031692915050565b60008083601f840112611678578182fd5b50813567ffffffffffffffff81111561168f578182fd5b60208301915083602080830285010111156116a957600080fd5b9250929050565b6000602082840312156116c1578081fd5b6116ca82611640565b9392505050565b600080602083850312156116e3578081fd5b823567ffffffffffffffff8111156116f9578182fd5b61170585828601611667565b90969095509350505050565b60008060008060408587031215611726578182fd5b843567ffffffffffffffff8082111561173d578384fd5b61174988838901611667565b90965094506020870135915080821115611761578384fd5b5061176e87828801611667565b95989497509550505050565b60008060006040848603121561178e578283fd5b833567ffffffffffffffff8111156117a4578384fd5b6117b086828701611667565b909790965060209590950135949350505050565b6000602082840312156117d5578081fd5b815180151581146116ca578182fd5b6000602082840312156117f5578081fd5b5035919050565b6000806040838503121561180e578182fd5b50508035926020909101359150565b60008060008060008060008060e0898b031215611838578384fd5b883567ffffffffffffffff8082111561184f578586fd5b818b0191508b601f830112611862578586fd5b813581811115611870578687fd5b8c6020828501011115611881578687fd5b60209283019a509850508901359550604089013594506118a360608a01611640565b93506118b160808a01611640565b925060a0890135915060c089013590509295985092959890939650565b600080604083850312156118e0578182fd5b505080516020909101519092909150565b90565b6001600160a01b0391909116815260200190565b6001600160a01b039390931683526020830191909152604082015260600190565b6020808252825182820181905260009190848201906040850190845b81811015611963578351151583529284019291840191600101611945565b50909695505050505050565b901515815260200190565b90815260200190565b600060e082528360e0830152610100848682850137828501810191909152601f8401601f191682010160208083018460005b60068110156119d2578151835291830191908301906001016119b5565b50505050949350505050565b60208082526010908201526f185b1c9958591e481b5a59dc985d195960821b604082015260600190565b6020808252602f908201527f4d65726b6c6520747265652069732066756c6c2e204e6f206d6f7265206c656160408201526e199cc818d85b881899481859191959608a1b606082015260800190565b602080825260159082015274135a59dc985d1a5bdb881a5cc8191a5cd8589b1959605a1b604082015260600190565b6020808252601c908201527f43616e6e6f742066696e6420796f7572206d65726b6c6520726f6f7400000000604082015260600190565b6020808252601a908201527f4665652065786365656473207472616e736665722076616c7565000000000000604082015260600190565b60208082526038908201527f506c656173652073656e6420606d697844656e6f6d696e6174696f6e6020455460408201527f4820616c6f6e672077697468207472616e73616374696f6e0000000000000000606082015260800190565b6020808252818101527f5f6c6566742073686f756c6420626520696e7369646520746865206669656c64604082015260600190565b60208082526021908201527f5f72696768742073686f756c6420626520696e7369646520746865206669656c6040820152601960fa1b606082015260800190565b60208082526016908201527524b73b30b634b2103bb4ba34323930bb90383937b7b360511b604082015260600190565b60208082526034908201527f526566756e642076616c756520697320737570706f73656420746f206265207a60408201527365726f20666f722045544820696e7374616e636560601b606082015260800190565b6020808252601f908201527f546865206e6f746520686173206265656e20616c7265616479207370656e7400604082015260600190565b60208082526021908201527f54686520636f6d6d69746d656e7420686173206265656e207375626d697474656040820152601960fa1b606082015260800190565b60208082526025908201527f7061796d656e7420746f205f726563697069656e7420646964206e6f7420676f604082015264207468727560d81b606082015260800190565b60208082526023908201527f7061796d656e7420746f205f72656c6179657220646964206e6f7420676f207460408201526268727560e81b606082015260800190565b60208082526025908201527f4f6e6c79206f70657261746f722063616e2063616c6c20746869732066756e636040820152643a34b7b71760d91b606082015260800190565b6020808252601f908201527f5265656e7472616e637947756172643a207265656e7472616e742063616c6c00604082015260600190565b60208082526035908201527f4d6573736167652076616c756520697320737570706f73656420746f206265206040820152747a65726f20666f722045544820696e7374616e636560581b606082015260800190565b918252602082015260400190565b63ffffffff91909116815260200190565b63ffffffff929092168252602082015260400190565b60008219821115611e6457611e6461209a565b500190565b600063ffffffff808316818516808303821115611e8857611e8861209a565b01949350505050565b600063ffffffff80841680611ea857611ea86120b0565b92169190910492915050565b80825b6001808611611ec65750611ef1565b818704821115611ed857611ed861209a565b80861615611ee557918102915b9490941c938002611eb7565b94509492505050565b600063ffffffff611f1081828616838616611f18565b949350505050565b600082611f27575060016116ca565b81611f34575060006116ca565b8160018114611f4a5760028114611f5457611f81565b60019150506116ca565b60ff841115611f6557611f6561209a565b6001841b915084821115611f7b57611f7b61209a565b506116ca565b5060208310610133831016604e8410600b8410161715611fb4575081810a83811115611faf57611faf61209a565b6116ca565b611fc18484846001611eb4565b808604821115611fd357611fd361209a565b02949350505050565b600082821015611fee57611fee61209a565b500390565b600063ffffffff838116908316818110156120105761201061209a565b039392505050565b600063ffffffff82168061202e5761202e61209a565b6000190192915050565b600060001982141561204c5761204c61209a565b5060010190565b600063ffffffff8083168181141561206d5761206d61209a565b6001019392505050565b600063ffffffff8084168061208e5761208e6120b0565b92169190910692915050565b634e487b7160e01b600052601160045260246000fd5b634e487b7160e01b600052601260045260246000fdfe30644e72e131a029b85045b68181585d2833e84879b9709143e1f593f0000001a26469706673582212205f892134479c5f06f92f297ccd44ea4d65f03d227f1d608af53f74d7387d74d264736f6c63430008000033405787fa12a823e0f2b7631cc41b3ba8828b3321ca811111fa75cd3aa3bb5ace30644e72e131a029b85045b68181585d2833e84879b9709143e1f593f0000001b10e2d527612073b26eecdfd717e6a320cf44b4afac2b0732d9fcbe2b7fa0cf6",
  "source": "// SPDX-License-Identifier: MIT\r\n/**\r\n *Submitted for verification at Etherscan.io on 2019-12-16\r\n*/\r\n\r\n// https://tornado.cash\r\n/*\r\n* d888888P                                           dP              a88888b.                   dP\r\n*    88                                              88             d8'   `88                   88\r\n*    88    .d8888b. 88d888b. 88d888b. .d8888b. .d888b88 .d8888b.    88        .d8888b. .d8888b. 88d888b.\r\n*    88    88'  `88 88'  `88 88'  `88 88'  `88 88'  `88 88'  `88    88        88'  `88 Y8ooooo. 88'  `88\r\n*    88    88.  .88 88       88    88 88.  .88 88.  .88 88.  .88 dP Y8.   .88 88.  .88       88 88    88\r\n*    dP    `88888P' dP       dP    dP `88888P8 `88888P8 `88888P' 88  Y88888P' `88888P8 `88888P' dP    dP\r\n* ooooooooooooooooooooooooooooooooooooooooooooooooooooooooooooooooooooooooooooooooooooooooooooooooooooooo\r\n*/\r\n\r\npragma solidity ^0.8.0;\r\n\r\ninterface IHasher {\r\n    function MiMCSponge(uint256 in_xL, uint256 in_xR) external pure returns (uint256 xL, uint256 xR);\r\n}\r\n\r\ncontract MerkleTreeWithHistory {\r\n    IHasher public hasher;\r\n    uint256 public constant FIELD_SIZE = 21888242871839275222246405745257275088548364400416034343698204186575808495617;\r\n    uint256 public constant ZERO_VALUE = 21663839004416932945382355908790599225266501822907911457504978515578255421292; // = keccak256(\"tornado\") % FIELD_SIZE\r\n\r\n    uint32 public levels;\r\n\r\n    // the following variables are made public for easier testing and debugging and\r\n    // are not supposed to be accessed in regular code\r\n    bytes32[] public filledSubtrees;\r\n    bytes32[] public zeros;\r\n    uint32 public currentRootIndex = 0;\r\n    uint32 public nextIndex = 0;\r\n    uint32 public constant ROOT_HISTORY_SIZE = 100;\r\n    bytes32[ROOT_HISTORY_SIZE] public roots;\r\n\r\n    constructor(uint32 _treeLevels, address _hasher) {\r\n        require(_treeLevels > 0, \"_treeLevels should be greater than zero\");\r\n        require(_treeLevels < 32, \"_treeLevels should be less than 32\");\r\n        levels = _treeLevels;\r\n        hasher = IHasher(_hasher);\r\n\r\n        bytes32 currentZero = bytes32(ZERO_VALUE);\r\n        zeros.push(currentZero);\r\n        filledSubtrees.push(currentZero);\r\n\r\n        for (uint32 i = 1; i < levels; i++) {\r\n            currentZero = hashLeftRight(currentZero, currentZero);\r\n            zeros.push(currentZero);\r\n            filledSubtrees.push(currentZero);\r\n        }\r\n\r\n        roots[0] = hashLeftRight(currentZero, currentZero);\r\n    }\r\n\r\n    /**\r\n@dev Hash 2 tree leaves, returns MiMC(_left, _right)\r\n  */\r\n    function hashLeftRight(bytes32 _left, bytes32 _right) public view returns (bytes32) {\r\n        require(uint256(_left) < FIELD_SIZE, \"_left should be inside the field\");\r\n        require(uint256(_right) < FIELD_SIZE, \"_right should be inside the field\");\r\n        uint256 R = uint256(_left);\r\n        uint256 C = 0;\r\n        (R, C) = hasher.MiMCSponge(R, C);\r\n        R = addmod(R, uint256(_right), FIELD_SIZE);\r\n        (R, C) = hasher.MiMCSponge(R, C);\r\n        return bytes32(R);\r\n    }\r\n\r\n    function _insert(bytes32 _leaf) internal returns(uint32 index) {\r\n        uint32 currentIndex = nextIndex;\r\n        require(currentIndex != uint32(2)**levels, \"Merkle tree is full. No more leafs can be added\");\r\n        nextIndex += 1;\r\n        bytes32 currentLevelHash = _leaf;\r\n        bytes32 left;\r\n        bytes32 right;\r\n\r\n        for (uint32 i = 0; i < levels; i++) {\r\n            if (currentIndex % 2 == 0) {\r\n                left = currentLevelHash;\r\n                right = zeros[i];\r\n\r\n                filledSubtrees[i] = currentLevelHash;\r\n            } else {\r\n                left = filledSubtrees[i];\r\n                right = currentLevelHash;\r\n            }\r\n\r\n            currentLevelHash = hashLeftRight(left, right);\r\n\r\n            currentIndex /= 2;\r\n        }\r\n\r\n        currentRootIndex = (currentRootIndex + 1) % ROOT_HISTORY_SIZE;\r\n        roots[currentRootIndex] = currentLevelHash;\r\n        return nextIndex - 1;\r\n    }\r\n\r\n    /**\r\n@dev Whether the root is present in the root history\r\n  */\r\n    function isKnownRoot(bytes32 _root) public view returns(bool) {\r\n        if (_root == 0) {\r\n            return false;\r\n        }\r\n        uint32 i = currentRootIndex;\r\n        do {\r\n            if (_root == roots[i]) {\r\n                return true;\r\n            }\r\n            if (i == 0) {\r\n                i = ROOT_HISTORY_SIZE;\r\n            }\r\n            i--;\r\n        } while (i != currentRootIndex);\r\n        return false;\r\n    }\r\n\r\n    /**\r\n@dev Returns the last root\r\n  */\r\n    function getLastRoot() public view returns(bytes32) {\r\n        return roots[currentRootIndex];\r\n    }\r\n}\r\n\r\n// File: @openzeppelin/contracts/utils/ReentrancyGuard.sol\r\n\r\n// pragma solidity ^0.5.0;\r\n\r\n/**\r\n * @dev Contract module that helps prevent reentrant calls to a function.\r\n *\r\n * Inheriting from `ReentrancyGuard` will make the {nonReentrant} modifier\r\n * available, which can be applied to functions to make sure there are no nested\r\n * (reentrant) calls to them.\r\n *\r\n * Note that because there is a single `nonReentrant` guard, functions marked as\r\n * `nonReentrant` may not call one another. This can be worked around by making\r\n * those functions `private`, and then adding `external` `nonReentrant` entry\r\n * points to them.\r\n */\r\ncontract ReentrancyGuard {\r\n    // counter to allow mutex lock with only one SSTORE operation\r\n    uint256 private _guardCounter;\r\n\r\n    constructor () {\r\n        // The counter starts at one to prevent changing it from zero to a non-zero\r\n        // value, which is a more expensive operation.\r\n        _guardCounter = 1;\r\n    }\r\n\r\n    /**\r\n     * @dev Prevents a contract from calling itself, directly or indirectly.\r\n     * Calling a `nonReentrant` function from another `nonReentrant`\r\n     * function is not supported. It is possible to prevent this from happening\r\n     * by making the `nonReentrant` function external, and make it call a\r\n     * `private` function that does the actual work.\r\n     */\r\n    modifier nonReentrant() {\r\n        _guardCounter += 1;\r\n        uint256 localCounter = _guardCounter;\r\n        _;\r\n        require(localCounter == _guardCounter, \"ReentrancyGuard: reentrant call\");\r\n    }\r\n}\r\n\r\n// File: contracts/Tornado.sol\r\n\r\n// https://tornado.cash\r\n/*\r\n* d888888P                                           dP              a88888b.                   dP\r\n*    88                                              88             d8'   `88                   88\r\n*    88    .d8888b. 88d888b. 88d888b. .d8888b. .d888b88 .d8888b.    88        .d8888b. .d8888b. 88d888b.\r\n*    88    88'  `88 88'  `88 88'  `88 88'  `88 88'  `88 88'  `88    88        88'  `88 Y8ooooo. 88'  `88\r\n*    88    88.  .88 88       88    88 88.  .88 88.  .88 88.  .88 dP Y8.   .88 88.  .88       88 88    88\r\n*    dP    `88888P' dP       dP    dP `88888P8 `88888P8 `88888P' 88  Y88888P' `88888P8 `88888P' dP    dP\r\n* ooooooooooooooooooooooooooooooooooooooooooooooooooooooooooooooooooooooooooooooooooooooooooooooooooooooo\r\n*/\r\n\r\n// pragma solidity ^0.5.8;\r\n\r\n\r\n\r\ninterface IVerifier {\r\n    function verifyProof(bytes memory _proof, uint256[6] memory _input) external view returns(bool);\r\n}\r\n\r\ncontract Tornado is MerkleTreeWithHistory, ReentrancyGuard {\r\n    uint256 public denomination;\r\n    mapping(bytes32 => bool) public nullifierHashes;\r\n    // we store all commitments just to prevent accidental deposits with the same commitment\r\n    mapping(bytes32 => bool) public commitments;\r\n    IVerifier public verifier;\r\n\r\n    // operator can update snark verification key\r\n    // after the final trusted setup ceremony operator rights are supposed to be transferred to zero address\r\n    address public operator;\r\n    modifier onlyOperator {\r\n        require(msg.sender == operator, \"Only operator can call this function.\");\r\n        _;\r\n    }\r\n\r\n    event Deposit(bytes32 indexed commitment, uint32 leafIndex, uint256 timestamp);\r\n    event Withdrawal(address to, bytes32 nullifierHash, address indexed relayer, uint256 fee);\r\n\r\n    /**\r\n@dev The constructor\r\n    @param _verifier the address of SNARK verifier for this contract\r\n    @param _denomination transfer amount for each deposit\r\n    @param _merkleTreeHeight the height of deposits' Merkle Tree\r\n    @param _operator operator address (see operator comment above)\r\n  */\r\n    constructor(\r\n        address _verifier,\r\n        uint256 _denomination,\r\n        uint32 _merkleTreeHeight,\r\n        address _operator,\r\n        address _hasher\r\n    ) MerkleTreeWithHistory(_merkleTreeHeight, _hasher) {\r\n        require(_denomination > 0, \"denomination should be greater than 0\");\r\n        verifier = IVerifier(_verifier);\r\n        operator = _operator;\r\n        denomination = _denomination;\r\n    }\r\n\r\n    /**\r\n@dev Deposit funds into the contract. The caller must send (for ETH) or approve (for ERC20) value equal to or `denomination` of this instance.\r\n    @param _commitment the note commitment, which is PedersenHash(nullifier + secret)\r\n  */\r\n    function deposit(bytes32 _commitment) external payable nonReentrant {\r\n        require(!commitments[_commitment], \"The commitment has been submitted\");\r\n\r\n        uint32 insertedIndex = _insert(_commitment);\r\n        commitments[_commitment] = true;\r\n        _processDeposit();\r\n\r\n        emit Deposit(_commitment, insertedIndex, block.timestamp);\r\n    }\r\n\r\n    /** @dev this function is defined in a child contract */\r\n    function _processDeposit() internal virtual {\r\n    }\r\n\r\n    /**\r\n@dev Withdraw a deposit from the contract. `proof` is a zkSNARK proof data, and input is an array of circuit public inputs\r\n    `input` array consists of:\r\n      - merkle root of all deposits in the contract\r\n      - hash of unique deposit nullifier to prevent double spends\r\n      - the recipient of funds\r\n      - optional fee that goes to the transaction sender (usually a relay)\r\n  */\r\n    function withdraw(bytes calldata _proof, bytes32 _root, bytes32 _nullifierHash, address _recipient, address _relayer, uint256 _fee, uint256 _refund) external payable nonReentrant {\r\n        require(_fee <= denomination, \"Fee exceeds transfer value\");\r\n        require(!nullifierHashes[_nullifierHash], \"The note has been already spent\");\r\n        require(isKnownRoot(_root), \"Cannot find your merkle root\"); // Make sure to use a recent one\r\n        require(verifier.verifyProof(_proof, [uint256(_root), uint256(_nullifierHash), uint256(uint160(_recipient)), uint256(uint160(_relayer)), _fee, _refund]), \"Invalid withdraw proof\");\r\n\r\n        nullifierHashes[_nullifierHash] = true;\r\n        _processWithdraw(payable(_recipient), payable(_relayer), _fee, _refund);\r\n        emit Withdrawal(_recipient, _nullifierHash, _relayer, _fee);\r\n    }\r\n\r\n    /** @dev this function is defined in a child contract */\r\n    function _processWithdraw(address payable _recipient, address payable _relayer, uint256 _fee, uint256 _refund) internal virtual {\r\n    }\r\n\r\n    /** @dev whether a note is already spent */\r\n    function isSpent(bytes32 _nullifierHash) public view returns(bool) {\r\n        return nullifierHashes[_nullifierHash];\r\n    }\r\n\r\n    /** @dev whether an array of notes is already spent */\r\n    function isSpentArray(bytes32[] calldata _nullifierHashes) external view returns(bool[] memory spent) {\r\n        spent = new bool[](_nullifierHashes.length);\r\n        for(uint i = 0; i < _nullifierHashes.length; i++) {\r\n            if (isSpent(_nullifierHashes[i])) {\r\n                spent[i] = true;\r\n            }\r\n        }\r\n    }\r\n\r\n    /**\r\n@dev allow operator to update SNARK verification keys. This is needed to update keys after the final trusted setup ceremony is held.\r\n    After that operator rights are supposed to be transferred to zero address\r\n  */\r\n    function updateVerifier(address _newVerifier) external onlyOperator {\r\n        verifier = IVerifier(_newVerifier);\r\n    }\r\n\r\n    /** @dev operator can change his address */\r\n    function changeOperator(address _newOperator) external onlyOperator {\r\n        operator = _newOperator;\r\n    }\r\n}\r\n\r\n// File: contracts/ETHTornado.sol\r\n\r\n// https://tornado.cash\r\n/*\r\n* d888888P                                           dP              a88888b.                   dP\r\n*    88                                              88             d8'   `88                   88\r\n*    88    .d8888b. 88d888b. 88d888b. .d8888b. .d888b88 .d8888b.    88        .d8888b. .d8888b. 88d888b.\r\n*    88    88'  `88 88'  `88 88'  `88 88'  `88 88'  `88 88'  `88    88        88'  `88 Y8ooooo. 88'  `88\r\n*    88    88.  .88 88       88    88 88.  .88 88.  .88 88.  .88 dP Y8.   .88 88.  .88       88 88    88\r\n*    dP    `88888P' dP       dP    dP `88888P8 `88888P8 `88888P' 88  Y88888P' `88888P8 `88888P' dP    dP\r\n* ooooooooooooooooooooooooooooooooooooooooooooooooooooooooooooooooooooooooooooooooooooooooooooooooooooooo\r\n*/\r\n\r\n// pragma solidity ^0.5.8;\r\n\r\n\r\ncontract ETHTornado is Tornado {\r\n    constructor(\r\n        address _verifier,\r\n        uint256 _denomination,\r\n        uint32 _merkleTreeHeight,\r\n        address _operator,\r\n        address _hasher\r\n    ) Tornado(_verifier, _denomination, _merkleTreeHeight, _operator, _hasher)  {\r\n    }\r\n\r\n    function _processDeposit() internal override{\r\n        require(msg.value == denomination, \"Please send `mixDenomination` ETH along with transaction\");\r\n    }\r\n\r\n    function _processWithdraw(address payable _recipient, address payable _relayer, uint256 _fee, uint256 _refund) internal override{\r\n        // sanity checks\r\n        require(msg.value == 0, \"Message value is supposed to be zero for ETH instance\");\r\n        require(_refund == 0, \"Refund value is supposed to be zero for ETH instance\");\r\n\r\n        (bool success, ) = _recipient.call{value : denomination - _fee}(\"\");\r\n        require(success, \"payment to _recipient did not go thru\");\r\n        if (_fee > 0) {\r\n            (success, ) = _relayer.call{value : _fee}(\"\");\r\n            require(success, \"payment to _relayer did not go thru\");\r\n        }\r\n    }\r\n}\r\n\r\n// File: contracts/MigratableETHTornado.sol\r\n\r\n// pragma solidity ^0.5.8;\r\n\r\n\r\ncontract TornadoCash_Eth_01 is ETHTornado {\r\n    bool public isMigrated = false;\r\n    //    event Log(\r\n    //        address _verifier,\r\n    //        uint256 _denomination,\r\n    //        uint32 _merkleTreeHeight,\r\n    //        address _operator,\r\n    //        address _hasher,\r\n    //        string message\r\n    //    );\r\n\r\n    constructor(\r\n        address _verifier,\r\n        uint256 _denomination,\r\n        uint32 _merkleTreeHeight,\r\n        address _operator,\r\n        address _hasher\r\n    ) ETHTornado(_verifier, _denomination, _merkleTreeHeight, _operator, _hasher)  {\r\n        //        emit Log(_verifier, _denomination, _merkleTreeHeight, _operator, _hasher, \"TornadoCash_Eth_01 l367\");\r\n        //        revert(\"L368\");\r\n    }\r\n\r\n    /**\r\n@dev Migrate state from old v1 tornado.cash instance to this contract.\r\n    @dev only applies to eth 0.1 deposits\r\n    @param _commitments deposited commitments from previous contract\r\n    @param _nullifierHashes spent nullifiers from previous contract\r\n  */\r\n    function migrateState(bytes32[] calldata _commitments, bytes32[] calldata _nullifierHashes) external onlyOperator {\r\n        require(!isMigrated, \"Migration is disabled\");\r\n        for (uint32 i = 0; i < _commitments.length; i++) {\r\n            commitments[_commitments[i]] = true;\r\n            emit Deposit(_commitments[i], nextIndex + i, block.timestamp);\r\n        }\r\n\r\n        nextIndex += uint32(_commitments.length);\r\n\r\n        for (uint256 i = 0; i < _nullifierHashes.length; i++) {\r\n            nullifierHashes[_nullifierHashes[i]] = true;\r\n            emit Withdrawal(address(0), _nullifierHashes[i], address(0), 0);\r\n        }\r\n    }\r\n\r\n    function initializeTreeForMigration(bytes32[] calldata _filledSubtrees, bytes32 _root) external onlyOperator {\r\n        require(!isMigrated, \"already migrated\");\r\n        filledSubtrees = _filledSubtrees;\r\n        roots[0] = _root;\r\n    }\r\n\r\n    function finishMigration() external payable onlyOperator {\r\n        isMigrated = true;\r\n    }\r\n}",
  "sourcePath": "D:/NodejsSpace/tronbox-js-tornado/contracts/TornadoCash_Eth_01.sol",
  "compiler": {
    "name": "solc",
    "version": "0.8.0+commit.7c2e6412.Emscripten.clang"
  },
  "schemaVersion": "2.0.1",
  "updatedAt": "2023-07-04T11:34:56.155Z"
}